{
  "contractName": "GovernorAlpha",
  "abi": [
    {
      "inputs": [
        {
          "internalType": "address",
          "name": "timelock_",
          "type": "address"
        },
        {
          "internalType": "address",
          "name": "mdx_",
          "type": "address"
        },
        {
          "internalType": "address",
          "name": "guardian_",
          "type": "address"
        }
      ],
      "stateMutability": "nonpayable",
      "type": "constructor"
    },
    {
      "anonymous": false,
      "inputs": [
        {
          "indexed": false,
          "internalType": "uint256",
          "name": "id",
          "type": "uint256"
        }
      ],
      "name": "ProposalCanceled",
      "type": "event"
    },
    {
      "anonymous": false,
      "inputs": [
        {
          "indexed": false,
          "internalType": "uint256",
          "name": "id",
          "type": "uint256"
        },
        {
          "indexed": false,
          "internalType": "address",
          "name": "proposer",
          "type": "address"
        },
        {
          "indexed": false,
          "internalType": "address[]",
          "name": "targets",
          "type": "address[]"
        },
        {
          "indexed": false,
          "internalType": "uint256[]",
          "name": "values",
          "type": "uint256[]"
        },
        {
          "indexed": false,
          "internalType": "string[]",
          "name": "signatures",
          "type": "string[]"
        },
        {
          "indexed": false,
          "internalType": "bytes[]",
          "name": "calldatas",
          "type": "bytes[]"
        },
        {
          "indexed": false,
          "internalType": "uint256",
          "name": "startBlock",
          "type": "uint256"
        },
        {
          "indexed": false,
          "internalType": "uint256",
          "name": "endBlock",
          "type": "uint256"
        },
        {
          "indexed": false,
          "internalType": "string",
          "name": "description",
          "type": "string"
        }
      ],
      "name": "ProposalCreated",
      "type": "event"
    },
    {
      "anonymous": false,
      "inputs": [
        {
          "indexed": false,
          "internalType": "uint256",
          "name": "id",
          "type": "uint256"
        }
      ],
      "name": "ProposalExecuted",
      "type": "event"
    },
    {
      "anonymous": false,
      "inputs": [
        {
          "indexed": false,
          "internalType": "uint256",
          "name": "id",
          "type": "uint256"
        },
        {
          "indexed": false,
          "internalType": "uint256",
          "name": "eta",
          "type": "uint256"
        }
      ],
      "name": "ProposalQueued",
      "type": "event"
    },
    {
      "anonymous": false,
      "inputs": [
        {
          "indexed": false,
          "internalType": "address",
          "name": "voter",
          "type": "address"
        },
        {
          "indexed": false,
          "internalType": "uint256",
          "name": "proposalId",
          "type": "uint256"
        },
        {
          "indexed": false,
          "internalType": "bool",
          "name": "support",
          "type": "bool"
        },
        {
          "indexed": false,
          "internalType": "uint256",
          "name": "votes",
          "type": "uint256"
        }
      ],
      "name": "VoteCast",
      "type": "event"
    },
    {
      "inputs": [],
      "name": "BALLOT_TYPEHASH",
      "outputs": [
        {
          "internalType": "bytes32",
          "name": "",
          "type": "bytes32"
        }
      ],
      "stateMutability": "view",
      "type": "function"
    },
    {
      "inputs": [],
      "name": "DOMAIN_TYPEHASH",
      "outputs": [
        {
          "internalType": "bytes32",
          "name": "",
          "type": "bytes32"
        }
      ],
      "stateMutability": "view",
      "type": "function"
    },
    {
      "inputs": [],
      "name": "guardian",
      "outputs": [
        {
          "internalType": "address",
          "name": "",
          "type": "address"
        }
      ],
      "stateMutability": "view",
      "type": "function"
    },
    {
      "inputs": [
        {
          "internalType": "address",
          "name": "",
          "type": "address"
        }
      ],
      "name": "latestProposalIds",
      "outputs": [
        {
          "internalType": "uint256",
          "name": "",
          "type": "uint256"
        }
      ],
      "stateMutability": "view",
      "type": "function"
    },
    {
      "inputs": [],
      "name": "mdx",
      "outputs": [
        {
          "internalType": "contract MdxToken",
          "name": "",
          "type": "address"
        }
      ],
      "stateMutability": "view",
      "type": "function"
    },
    {
      "inputs": [],
      "name": "name",
      "outputs": [
        {
          "internalType": "string",
          "name": "",
          "type": "string"
        }
      ],
      "stateMutability": "view",
      "type": "function"
    },
    {
      "inputs": [],
      "name": "proposalCount",
      "outputs": [
        {
          "internalType": "uint256",
          "name": "",
          "type": "uint256"
        }
      ],
      "stateMutability": "view",
      "type": "function"
    },
    {
      "inputs": [
        {
          "internalType": "uint256",
          "name": "",
          "type": "uint256"
        }
      ],
      "name": "proposals",
      "outputs": [
        {
          "internalType": "uint256",
          "name": "id",
          "type": "uint256"
        },
        {
          "internalType": "address",
          "name": "proposer",
          "type": "address"
        },
        {
          "internalType": "uint256",
          "name": "eta",
          "type": "uint256"
        },
        {
          "internalType": "uint256",
          "name": "startBlock",
          "type": "uint256"
        },
        {
          "internalType": "uint256",
          "name": "endBlock",
          "type": "uint256"
        },
        {
          "internalType": "uint256",
          "name": "forVotes",
          "type": "uint256"
        },
        {
          "internalType": "uint256",
          "name": "againstVotes",
          "type": "uint256"
        },
        {
          "internalType": "bool",
          "name": "canceled",
          "type": "bool"
        },
        {
          "internalType": "bool",
          "name": "executed",
          "type": "bool"
        }
      ],
      "stateMutability": "view",
      "type": "function"
    },
    {
      "inputs": [],
      "name": "timelock",
      "outputs": [
        {
          "internalType": "contract TimelockInterface",
          "name": "",
          "type": "address"
        }
      ],
      "stateMutability": "view",
      "type": "function"
    },
    {
      "inputs": [],
      "name": "quorumVotes",
      "outputs": [
        {
          "internalType": "uint256",
          "name": "",
          "type": "uint256"
        }
      ],
      "stateMutability": "view",
      "type": "function"
    },
    {
      "inputs": [],
      "name": "proposalThreshold",
      "outputs": [
        {
          "internalType": "uint256",
          "name": "",
          "type": "uint256"
        }
      ],
      "stateMutability": "view",
      "type": "function"
    },
    {
      "inputs": [],
      "name": "proposalMaxOperations",
      "outputs": [
        {
          "internalType": "uint256",
          "name": "",
          "type": "uint256"
        }
      ],
      "stateMutability": "pure",
      "type": "function"
    },
    {
      "inputs": [],
      "name": "votingDelay",
      "outputs": [
        {
          "internalType": "uint256",
          "name": "",
          "type": "uint256"
        }
      ],
      "stateMutability": "pure",
      "type": "function"
    },
    {
      "inputs": [],
      "name": "votingPeriod",
      "outputs": [
        {
          "internalType": "uint256",
          "name": "",
          "type": "uint256"
        }
      ],
      "stateMutability": "pure",
      "type": "function"
    },
    {
      "inputs": [
        {
          "internalType": "address[]",
          "name": "targets",
          "type": "address[]"
        },
        {
          "internalType": "uint256[]",
          "name": "values",
          "type": "uint256[]"
        },
        {
          "internalType": "string[]",
          "name": "signatures",
          "type": "string[]"
        },
        {
          "internalType": "bytes[]",
          "name": "calldatas",
          "type": "bytes[]"
        },
        {
          "internalType": "string",
          "name": "description",
          "type": "string"
        }
      ],
      "name": "propose",
      "outputs": [
        {
          "internalType": "uint256",
          "name": "",
          "type": "uint256"
        }
      ],
      "stateMutability": "nonpayable",
      "type": "function"
    },
    {
      "inputs": [
        {
          "internalType": "uint256",
          "name": "proposalId",
          "type": "uint256"
        }
      ],
      "name": "queue",
      "outputs": [],
      "stateMutability": "nonpayable",
      "type": "function"
    },
    {
      "inputs": [
        {
          "internalType": "uint256",
          "name": "proposalId",
          "type": "uint256"
        }
      ],
      "name": "execute",
      "outputs": [],
      "stateMutability": "payable",
      "type": "function"
    },
    {
      "inputs": [
        {
          "internalType": "uint256",
          "name": "proposalId",
          "type": "uint256"
        }
      ],
      "name": "cancel",
      "outputs": [],
      "stateMutability": "nonpayable",
      "type": "function"
    },
    {
      "inputs": [
        {
          "internalType": "uint256",
          "name": "proposalId",
          "type": "uint256"
        }
      ],
      "name": "getActions",
      "outputs": [
        {
          "internalType": "address[]",
          "name": "targets",
          "type": "address[]"
        },
        {
          "internalType": "uint256[]",
          "name": "values",
          "type": "uint256[]"
        },
        {
          "internalType": "string[]",
          "name": "signatures",
          "type": "string[]"
        },
        {
          "internalType": "bytes[]",
          "name": "calldatas",
          "type": "bytes[]"
        }
      ],
      "stateMutability": "view",
      "type": "function"
    },
    {
      "inputs": [
        {
          "internalType": "uint256",
          "name": "proposalId",
          "type": "uint256"
        },
        {
          "internalType": "address",
          "name": "voter",
          "type": "address"
        }
      ],
      "name": "getReceipt",
      "outputs": [
        {
          "components": [
            {
              "internalType": "bool",
              "name": "hasVoted",
              "type": "bool"
            },
            {
              "internalType": "bool",
              "name": "support",
              "type": "bool"
            },
            {
              "internalType": "uint256",
              "name": "votes",
              "type": "uint256"
            }
          ],
          "internalType": "struct GovernorAlpha.Receipt",
          "name": "",
          "type": "tuple"
        }
      ],
      "stateMutability": "view",
      "type": "function"
    },
    {
      "inputs": [
        {
          "internalType": "uint256",
          "name": "proposalId",
          "type": "uint256"
        }
      ],
      "name": "state",
      "outputs": [
        {
          "internalType": "enum GovernorAlpha.ProposalState",
          "name": "",
          "type": "uint8"
        }
      ],
      "stateMutability": "view",
      "type": "function"
    },
    {
      "inputs": [
        {
          "internalType": "uint256",
          "name": "proposalId",
          "type": "uint256"
        },
        {
          "internalType": "bool",
          "name": "support",
          "type": "bool"
        }
      ],
      "name": "castVote",
      "outputs": [],
      "stateMutability": "nonpayable",
      "type": "function"
    },
    {
      "inputs": [
        {
          "internalType": "uint256",
          "name": "proposalId",
          "type": "uint256"
        },
        {
          "internalType": "bool",
          "name": "support",
          "type": "bool"
        },
        {
          "internalType": "uint8",
          "name": "v",
          "type": "uint8"
        },
        {
          "internalType": "bytes32",
          "name": "r",
          "type": "bytes32"
        },
        {
          "internalType": "bytes32",
          "name": "s",
          "type": "bytes32"
        }
      ],
      "name": "castVoteBySig",
      "outputs": [],
      "stateMutability": "nonpayable",
      "type": "function"
    },
    {
      "inputs": [],
      "name": "__acceptAdmin",
      "outputs": [],
      "stateMutability": "nonpayable",
      "type": "function"
    },
    {
      "inputs": [],
      "name": "__abdicate",
      "outputs": [],
      "stateMutability": "nonpayable",
      "type": "function"
    },
    {
      "inputs": [
        {
          "internalType": "address",
          "name": "newPendingAdmin",
          "type": "address"
        },
        {
          "internalType": "uint256",
          "name": "eta",
          "type": "uint256"
        }
      ],
      "name": "__queueSetTimelockPendingAdmin",
      "outputs": [],
      "stateMutability": "nonpayable",
      "type": "function"
    },
    {
      "inputs": [
        {
          "internalType": "address",
          "name": "newPendingAdmin",
          "type": "address"
        },
        {
          "internalType": "uint256",
          "name": "eta",
          "type": "uint256"
        }
      ],
      "name": "__executeSetTimelockPendingAdmin",
      "outputs": [],
      "stateMutability": "nonpayable",
      "type": "function"
    }
  ],
  "bytecode": "0x60806040523480156200001157600080fd5b506040516200331338038062003313833981016040819052620000349162000077565b600080546001600160a01b039485166001600160a01b031991821617909155600180549385169382169390931790925560028054919093169116179055620000e3565b6000806000606084860312156200008c578283fd5b83516200009981620000ca565b6020850151909350620000ac81620000ca565b6040850151909250620000bf81620000ca565b809150509250925092565b6001600160a01b0381168114620000e057600080fd5b50565b61322080620000f36000396000f3fe60806040526004361061019c5760003560e01c80634634c61f116100ec578063d33219b41161008a578063ddf0b00911610064578063ddf0b00914610456578063deaaa7cc14610476578063e23a9a521461048b578063fe0d94c1146104b85761019c565b8063d33219b41461040c578063da35c66414610421578063da95691a146104365761019c565b80637bdbe4d0116100c65780637bdbe4d0146103ad57806391500671146103c2578063b58131b0146103e2578063b9a61961146103f75761019c565b80634634c61f146103635780635672ab5514610383578063760fbc13146103985761019c565b806321f43e42116101595780633932abb1116101335780633932abb1146102df5780633e4f49e6146102f457806340e58ee514610321578063452a9320146103415761019c565b806321f43e421461027a57806324bc1a641461029a578063328dd982146102af5761019c565b8063013cf08b146101a157806302a251a3146101df57806306fdde031461020157806315373e3d1461022357806317977c611461024557806320606b7014610265575b600080fd5b3480156101ad57600080fd5b506101c16101bc36600461243f565b6104cb565b6040516101d6999897969594939291906130df565b60405180910390f35b3480156101eb57600080fd5b506101f4610524565b6040516101d69190612835565b34801561020d57600080fd5b5061021661052b565b6040516101d691906128ac565b34801561022f57600080fd5b5061024361023e366004612483565b610559565b005b34801561025157600080fd5b506101f4610260366004612287565b610568565b34801561027157600080fd5b506101f461057a565b34801561028657600080fd5b506102436102953660046122a2565b61059e565b3480156102a657600080fd5b506101f4610685565b3480156102bb57600080fd5b506102cf6102ca36600461243f565b61071c565b6040516101d694939291906127dd565b3480156102eb57600080fd5b506101f46109ab565b34801561030057600080fd5b5061031461030f36600461243f565b6109b0565b6040516101d69190612898565b34801561032d57600080fd5b5061024361033c36600461243f565b610b3a565b34801561034d57600080fd5b50610356610d9a565b6040516101d69190612697565b34801561036f57600080fd5b5061024361037e3660046124b2565b610da9565b34801561038f57600080fd5b50610356610f57565b3480156103a457600080fd5b50610243610f66565b3480156103b957600080fd5b506101f4610fa2565b3480156103ce57600080fd5b506102436103dd3660046122a2565b610fa7565b3480156103ee57600080fd5b506101f461107c565b34801561040357600080fd5b506102436110ce565b34801561041857600080fd5b50610356611153565b34801561042d57600080fd5b506101f4611162565b34801561044257600080fd5b506101f46104513660046122cc565b611168565b34801561046257600080fd5b5061024361047136600461243f565b61157f565b34801561048257600080fd5b506101f46117e9565b34801561049757600080fd5b506104ab6104a6366004612457565b61180d565b6040516101d69190613022565b6102436104c636600461243f565b611871565b6004602052600090815260409020805460018201546002830154600784015460088501546009860154600a870154600b9097015495966001600160a01b0390951695939492939192909160ff8082169161010090041689565b6201518090565b604051806040016040528060128152602001714d445820476f7665726e6f7220416c70686160701b81525081565b610564338383611a36565b5050565b60056020526000908152604090205481565b7f8cad95687ba82c2ce50e74f7b754645e5117c3a5bec8151c0726d5857980a86681565b6002546001600160a01b031633146105d15760405162461bcd60e51b81526004016105c8906129f1565b60405180910390fd5b600080546040516001600160a01b0390911691630825f38f918391906105fb908790602001612697565b604051602081830303815290604052856040518563ffffffff1660e01b815260040161062a94939291906126c4565b600060405180830381600087803b15801561064457600080fd5b505af1158015610658573d6000803e3d6000fd5b505050506040513d6000823e601f3d908101601f1916820160405261068091908101906123cc565b505050565b60006019600160009054906101000a90046001600160a01b03166001600160a01b03166318160ddd6040518163ffffffff1660e01b815260040160206040518083038186803b1580156106d757600080fd5b505afa1580156106eb573d6000803e3d6000fd5b505050506040513d601f19601f8201168201806040525081019061070f91906123b4565b8161071657fe5b04905090565b6060806060806000600460008781526020019081526020016000209050806003018160040182600501836006018380548060200260200160405190810160405280929190818152602001828054801561079e57602002820191906000526020600020905b81546001600160a01b03168152600190910190602001808311610780575b50505050509350828054806020026020016040519081016040528092919081815260200182805480156107f057602002820191906000526020600020905b8154815260200190600101908083116107dc575b5050505050925081805480602002602001604051908101604052809291908181526020016000905b828210156108c35760008481526020908190208301805460408051601f60026000196101006001871615020190941693909304928301859004850281018501909152818152928301828280156108af5780601f10610884576101008083540402835291602001916108af565b820191906000526020600020905b81548152906001019060200180831161089257829003601f168201915b505050505081526020019060010190610818565b50505050915080805480602002602001604051908101604052809291908181526020016000905b828210156109955760008481526020908190208301805460408051601f60026000196101006001871615020190941693909304928301859004850281018501909152818152928301828280156109815780601f1061095657610100808354040283529160200191610981565b820191906000526020600020905b81548152906001019060200180831161096457829003601f168201915b5050505050815260200190600101906108ea565b5050505090509450945094509450509193509193565b600190565b600081600354101580156109c45750600082115b6109e05760405162461bcd60e51b81526004016105c890612a63565b6000828152600460205260409020600b81015460ff1615610a05576002915050610b35565b80600701544311610a1a576000915050610b35565b80600801544311610a2f576001915050610b35565b80600a01548160090154111580610a505750610a49610685565b8160090154105b15610a5f576003915050610b35565b6002810154610a72576004915050610b35565b600b810154610100900460ff1615610a8e576007915050610b35565b610b1f816002015460008054906101000a90046001600160a01b03166001600160a01b031663c1a287e26040518163ffffffff1660e01b815260040160206040518083038186803b158015610ae257600080fd5b505afa158015610af6573d6000803e3d6000fd5b505050506040513d601f19601f82011682018060405250810190610b1a91906123b4565b611bd2565b4210610b2f576006915050610b35565b60059150505b919050565b6000610b45826109b0565b90506007816007811115610b5557fe5b1415610b735760405162461bcd60e51b81526004016105c890612efd565b60008281526004602052604090206002546001600160a01b0316331480610c355750610b9d61107c565b60018054838201546001600160a01b039182169263782d6fe19290911690610bc6904390611bfe565b6040518363ffffffff1660e01b8152600401610be39291906126ab565b60206040518083038186803b158015610bfb57600080fd5b505afa158015610c0f573d6000803e3d6000fd5b505050506040513d601f19601f82011682018060405250810190610c3391906123b4565b105b610c515760405162461bcd60e51b81526004016105c890612cc9565b600b8101805460ff1916600117905560005b6003820154811015610d5d576000546003830180546001600160a01b039092169163591fcdfe919084908110610c9557fe5b6000918252602090912001546004850180546001600160a01b039092169185908110610cbd57fe5b9060005260206000200154856005018581548110610cd757fe5b90600052602060002001866006018681548110610cf057fe5b9060005260206000200187600201546040518663ffffffff1660e01b8152600401610d1f9594939291906127a4565b600060405180830381600087803b158015610d3957600080fd5b505af1158015610d4d573d6000803e3d6000fd5b505060019092019150610c639050565b507f789cf55be980739dad1d0699b93b58e806b51c9d96619bfa8fe0a28abaa7b30c83604051610d8d9190612835565b60405180910390a1505050565b6002546001600160a01b031681565b6040805180820190915260128152714d445820476f7665726e6f7220416c70686160701b60209091015260007f8cad95687ba82c2ce50e74f7b754645e5117c3a5bec8151c0726d5857980a8667f85e4974960d96309cbef98000f57f779e6585d800edbb09b174ac9c13230397b610e1f611c26565b30604051602001610e33949392919061283e565b60405160208183030381529060405280519060200120905060007f8e25870c07e0b0b3884c78da52790939a455c275406c44ae8b434b692fb916ee8787604051602001610e8293929190612862565b60405160208183030381529060405280519060200120905060008282604051602001610eaf92919061267c565b604051602081830303815290604052805190602001209050600060018288888860405160008152602001604052604051610eec949392919061287a565b6020604051602081039080840390855afa158015610f0e573d6000803e3d6000fd5b5050604051601f1901519150506001600160a01b038116610f415760405162461bcd60e51b81526004016105c890612e2b565b610f4c818a8a611a36565b505050505050505050565b6001546001600160a01b031681565b6002546001600160a01b03163314610f905760405162461bcd60e51b81526004016105c890612fcc565b600280546001600160a01b0319169055565b600a90565b6002546001600160a01b03163314610fd15760405162461bcd60e51b81526004016105c890612b7c565b600080546040516001600160a01b0390911691633a66f90191839190610ffb908790602001612697565b604051602081830303815290604052856040518563ffffffff1660e01b815260040161102a94939291906126c4565b602060405180830381600087803b15801561104457600080fd5b505af1158015611058573d6000803e3d6000fd5b505050506040513d601f19601f8201168201806040525081019061068091906123b4565b60006064600160009054906101000a90046001600160a01b03166001600160a01b03166318160ddd6040518163ffffffff1660e01b815260040160206040518083038186803b1580156106d757600080fd5b6002546001600160a01b031633146110f85760405162461bcd60e51b81526004016105c8906128bf565b6000805460408051630e18b68160e01b815290516001600160a01b0390921692630e18b6819260048084019382900301818387803b15801561113957600080fd5b505af115801561114d573d6000803e3d6000fd5b50505050565b6000546001600160a01b031681565b60035481565b600061117261107c565b600180546001600160a01b03169063782d6fe1903390611193904390611bfe565b6040518363ffffffff1660e01b81526004016111b09291906126ab565b60206040518083038186803b1580156111c857600080fd5b505afa1580156111dc573d6000803e3d6000fd5b505050506040513d601f19601f8201168201806040525081019061120091906123b4565b1161121d5760405162461bcd60e51b81526004016105c890612dce565b8451865114801561122f575083518651145b801561123c575082518651145b6112585760405162461bcd60e51b81526004016105c890612c5f565b85516112765760405162461bcd60e51b81526004016105c890612d82565b61127e610fa2565b8651111561129e5760405162461bcd60e51b81526004016105c890612bec565b33600090815260056020526040902054801561131b5760006112bf826109b0565b905060018160078111156112cf57fe5b14156112ed5760405162461bcd60e51b81526004016105c890612e7a565b60008160078111156112fb57fe5b14156113195760405162461bcd60e51b81526004016105c890612af9565b505b600061132943610b1a6109ab565b9050600061133982610b1a610524565b600380546001019055905061134c611d89565b604051806101a001604052806003548152602001336001600160a01b03168152602001600081526020018b81526020018a815260200189815260200188815260200184815260200183815260200160008152602001600081526020016000151581526020016000151581525090508060046000836000015181526020019081526020016000206000820151816000015560208201518160010160006101000a8154816001600160a01b0302191690836001600160a01b0316021790555060408201518160020155606082015181600301908051906020019061142f929190611dfe565b506080820151805161144b916004840191602090910190611e63565b5060a08201518051611467916005840191602090910190611eaa565b5060c08201518051611483916006840191602090910190611f03565b5060e082015181600701556101008201518160080155610120820151816009015561014082015181600a015561016082015181600b0160006101000a81548160ff02191690831515021790555061018082015181600b0160016101000a81548160ff02191690831515021790555090505080600001516005600083602001516001600160a01b03166001600160a01b03168152602001908152602001600020819055507f7d84a6263ae0d98d3329bd7b46bb4e8d6f98cd35a7adb45c274c8b7fd5ebd5e08160000151338c8c8c8c89898e60405161156999989796959493929190613047565b60405180910390a1519998505050505050505050565b600461158a826109b0565b600781111561159557fe5b146115b25760405162461bcd60e51b81526004016105c89061291c565b600081815260046020818152604080842084548251630d48571f60e31b815292519195946116079442946001600160a01b0390931693636a42b8f8938084019390829003018186803b158015610ae257600080fd5b905060005b60038301548110156117af576117a783600301828154811061162a57fe5b6000918252602090912001546004850180546001600160a01b03909216918490811061165257fe5b906000526020600020015485600501848154811061166c57fe5b600091825260209182902001805460408051601f60026000196101006001871615020190941693909304928301859004850281018501909152818152928301828280156116fa5780601f106116cf576101008083540402835291602001916116fa565b820191906000526020600020905b8154815290600101906020018083116116dd57829003601f168201915b505050505086600601858154811061170e57fe5b600091825260209182902001805460408051601f600260001961010060018716150201909416939093049283018590048502810185019091528181529283018282801561179c5780601f106117715761010080835404028352916020019161179c565b820191906000526020600020905b81548152906001019060200180831161177f57829003601f168201915b505050505086611c2a565b60010161160c565b50600282018190556040517f9a2e42fd6722813d69113e7d0079d3d940171428df7373df9c7f7617cfda289290610d8d908590849061312b565b7f8e25870c07e0b0b3884c78da52790939a455c275406c44ae8b434b692fb916ee81565b611815611f5c565b5060008281526004602090815260408083206001600160a01b0385168452600c018252918290208251606081018452815460ff808216151583526101009091041615159281019290925260010154918101919091525b92915050565b600561187c826109b0565b600781111561188757fe5b146118a45760405162461bcd60e51b81526004016105c890612986565b6000818152600460205260408120600b8101805461ff001916610100179055905b60038201548110156119fa576000546004830180546001600160a01b0390921691630825f38f9190849081106118f757fe5b906000526020600020015484600301848154811061191157fe5b6000918252602090912001546004860180546001600160a01b03909216918690811061193957fe5b906000526020600020015486600501868154811061195357fe5b9060005260206000200187600601878154811061196c57fe5b9060005260206000200188600201546040518763ffffffff1660e01b815260040161199b9594939291906127a4565b6000604051808303818588803b1580156119b457600080fd5b505af11580156119c8573d6000803e3d6000fd5b50505050506040513d6000823e601f3d908101601f191682016040526119f191908101906123cc565b506001016118c5565b507f712ae1383f79ac853f8d882153778e0260ef8f03b504e2866e0593e04d2b291f82604051611a2a9190612835565b60405180910390a15050565b6001611a41836109b0565b6007811115611a4c57fe5b14611a695760405162461bcd60e51b81526004016105c890612f53565b60008281526004602090815260408083206001600160a01b0387168452600c8101909252909120805460ff1615611ab25760405162461bcd60e51b81526004016105c890612aac565b600154600783015460405163782d6fe160e01b81526000926001600160a01b03169163782d6fe191611ae8918a916004016126ab565b60206040518083038186803b158015611b0057600080fd5b505afa158015611b14573d6000803e3d6000fd5b505050506040513d601f19601f82011682018060405250810190611b3891906123b4565b90508315611b5857611b4e836009015482611bd2565b6009840155611b6c565b611b6683600a015482611bd2565b600a8401555b8154600160ff19909116811761ff0019166101008615150217835582018190556040517f877856338e13f63d0c36822ff0ef736b80934cd90574a3a5bc9262c39d217c4690611bc2908890889088908690612730565b60405180910390a1505050505050565b600082820183811015611bf75760405162461bcd60e51b81526004016105c890612c34565b9392505050565b600082821115611c205760405162461bcd60e51b81526004016105c890612f9d565b50900390565b4690565b6000546040516001600160a01b039091169063f2b0653790611c589088908890889088908890602001612758565b604051602081830303815290604052805190602001206040518263ffffffff1660e01b8152600401611c8a9190612835565b60206040518083038186803b158015611ca257600080fd5b505afa158015611cb6573d6000803e3d6000fd5b505050506040513d601f19601f82011682018060405250810190611cda9190612398565b15611cf75760405162461bcd60e51b81526004016105c890612d18565b600054604051633a66f90160e01b81526001600160a01b0390911690633a66f90190611d2f9088908890889088908890600401612758565b602060405180830381600087803b158015611d4957600080fd5b505af1158015611d5d573d6000803e3d6000fd5b505050506040513d601f19601f82011682018060405250810190611d8191906123b4565b505050505050565b604051806101a001604052806000815260200160006001600160a01b031681526020016000815260200160608152602001606081526020016060815260200160608152602001600081526020016000815260200160008152602001600081526020016000151581526020016000151581525090565b828054828255906000526020600020908101928215611e53579160200282015b82811115611e5357825182546001600160a01b0319166001600160a01b03909116178255602090920191600190910190611e1e565b50611e5f929150611f7c565b5090565b828054828255906000526020600020908101928215611e9e579160200282015b82811115611e9e578251825591602001919060010190611e83565b50611e5f929150611f9b565b828054828255906000526020600020908101928215611ef7579160200282015b82811115611ef75782518051611ee7918491602090910190611fb0565b5091602001919060010190611eca565b50611e5f92915061201d565b828054828255906000526020600020908101928215611f50579160200282015b82811115611f505782518051611f40918491602090910190611fb0565b5091602001919060010190611f23565b50611e5f92915061203a565b604080516060810182526000808252602082018190529181019190915290565b5b80821115611e5f5780546001600160a01b0319168155600101611f7d565b5b80821115611e5f5760008155600101611f9c565b828054600181600116156101000203166002900490600052602060002090601f016020900481019282601f10611ff157805160ff1916838001178555611e9e565b82800160010185558215611e9e5791820182811115611e9e578251825591602001919060010190611e83565b80821115611e5f5760006120318282612057565b5060010161201d565b80821115611e5f57600061204e8282612057565b5060010161203a565b50805460018160011615610100020316600290046000825580601f1061207d575061209b565b601f01602090049060005260206000209081019061209b9190611f9b565b50565b80356001600160a01b038116811461186b57600080fd5b600082601f8301126120c5578081fd5b81356120d86120d382613160565b613139565b8181529150602080830190848101818402860182018710156120f957600080fd5b60005b848110156121205761210e888361209e565b845292820192908201906001016120fc565b505050505092915050565b600082601f83011261213b578081fd5b81356121496120d382613160565b818152915060208083019084810160005b8481101561212057612171888484358a0101612239565b8452928201929082019060010161215a565b600082601f830112612193578081fd5b81356121a16120d382613160565b818152915060208083019084810160005b84811015612120576121c9888484358a0101612239565b845292820192908201906001016121b2565b600082601f8301126121eb578081fd5b81356121f96120d382613160565b81815291506020808301908481018184028601820187101561221a57600080fd5b60005b848110156121205781358452928201929082019060010161221d565b600082601f830112612249578081fd5b81356122576120d382613180565b915080825283602082850101111561226e57600080fd5b8060208401602084013760009082016020015292915050565b600060208284031215612298578081fd5b611bf7838361209e565b600080604083850312156122b4578081fd5b6122be848461209e565b946020939093013593505050565b600080600080600060a086880312156122e3578081fd5b853567ffffffffffffffff808211156122fa578283fd5b61230689838a016120b5565b9650602088013591508082111561231b578283fd5b61232789838a016121db565b9550604088013591508082111561233c578283fd5b61234889838a01612183565b9450606088013591508082111561235d578283fd5b61236989838a0161212b565b9350608088013591508082111561237e578283fd5b5061238b88828901612239565b9150509295509295909350565b6000602082840312156123a9578081fd5b8151611bf7816131dc565b6000602082840312156123c5578081fd5b5051919050565b6000602082840312156123dd578081fd5b815167ffffffffffffffff8111156123f3578182fd5b8201601f81018413612403578182fd5b80516124116120d382613180565b818152856020838501011115612425578384fd5b6124368260208301602086016131b0565b95945050505050565b600060208284031215612450578081fd5b5035919050565b60008060408385031215612469578182fd5b8235915061247a846020850161209e565b90509250929050565b60008060408385031215612495578182fd5b8235915060208301356124a7816131dc565b809150509250929050565b600080600080600060a086880312156124c9578283fd5b8535945060208601356124db816131dc565b9350604086013560ff811681146124f0578384fd5b94979396509394606081013594506080013592915050565b6000815180845260208085019450808401835b838110156125405781516001600160a01b03168752958201959082019060010161251b565b509495945050505050565b6000815180845260208085018081965082840281019150828601855b8581101561259157828403895261257f8483516125cd565b98850198935090840190600101612567565b5091979650505050505050565b6000815180845260208085019450808401835b83811015612540578151875295820195908201906001016125b1565b600081518084526125e58160208601602086016131b0565b601f01601f19169290920160200192915050565b60008154600180821660008114612617576001811461263557612673565b60028304607f16865260ff1983166020870152604086019350612673565b60028304808752612645866131a4565b60005b828110156126695781546020828b0101528482019150602081019050612648565b8801602001955050505b50505092915050565b61190160f01b81526002810192909252602282015260420190565b6001600160a01b0391909116815260200190565b6001600160a01b03929092168252602082015260400190565b600060018060a01b038616825284602083015260a06040830152601860a08301527f73657450656e64696e6741646d696e286164647265737329000000000000000060c083015260e0606083015261271f60e08301856125cd565b905082608083015295945050505050565b6001600160a01b03949094168452602084019290925215156040830152606082015260800190565b600060018060a01b038716825285602083015260a0604083015261277f60a08301866125cd565b828103606084015261279181866125cd565b9150508260808301529695505050505050565b600060018060a01b038716825285602083015260a060408301526127cb60a08301866125f9565b828103606084015261279181866125f9565b6000608082526127f06080830187612508565b8281036020840152612802818761259e565b90508281036040840152612816818661254b565b9050828103606084015261282a818561254b565b979650505050505050565b90815260200190565b938452602084019290925260408301526001600160a01b0316606082015260800190565b92835260208301919091521515604082015260600190565b93845260ff9290921660208401526040830152606082015260800190565b60208101600883106128a657fe5b91905290565b600060208252611bf760208301846125cd565b60208082526039908201527f476f7665726e6f72416c7068613a3a5f5f61636365707441646d696e3a20736560408201527f6e646572206d75737420626520676f7620677561726469616e00000000000000606082015260800190565b60208082526044908201527f476f7665726e6f72416c7068613a3a71756575653a2070726f706f73616c206360408201527f616e206f6e6c79206265207175657565642069662069742069732073756363656060820152631959195960e21b608082015260a00190565b60208082526045908201527f476f7665726e6f72416c7068613a3a657865637574653a2070726f706f73616c60408201527f2063616e206f6e6c7920626520657865637574656420696620697420697320716060820152641d595d595960da1b608082015260a00190565b6020808252604c908201527f476f7665726e6f72416c7068613a3a5f5f6578656375746553657454696d656c60408201527f6f636b50656e64696e6741646d696e3a2073656e646572206d7573742062652060608201526b33b7bb1033bab0b93234b0b760a11b608082015260a00190565b60208082526029908201527f476f7665726e6f72416c7068613a3a73746174653a20696e76616c69642070726040820152681bdc1bdcd85b081a5960ba1b606082015260800190565b6020808252602d908201527f476f7665726e6f72416c7068613a3a5f63617374566f74653a20766f7465722060408201526c185b1c9958591e481d9bdd1959609a1b606082015260800190565b60208082526059908201527f476f7665726e6f72416c7068613a3a70726f706f73653a206f6e65206c69766560408201527f2070726f706f73616c207065722070726f706f7365722c20666f756e6420616e60608201527f20616c72656164792070656e64696e672070726f706f73616c00000000000000608082015260a00190565b6020808252604a908201527f476f7665726e6f72416c7068613a3a5f5f717565756553657454696d656c6f6360408201527f6b50656e64696e6741646d696e3a2073656e646572206d75737420626520676f6060820152693b1033bab0b93234b0b760b11b608082015260a00190565b60208082526028908201527f476f7665726e6f72416c7068613a3a70726f706f73653a20746f6f206d616e7960408201526720616374696f6e7360c01b606082015260800190565b6020808252601190820152706164646974696f6e206f766572666c6f7760781b604082015260600190565b60208082526044908201527f476f7665726e6f72416c7068613a3a70726f706f73653a2070726f706f73616c60408201527f2066756e6374696f6e20696e666f726d6174696f6e206172697479206d69736d6060820152630c2e8c6d60e31b608082015260a00190565b6020808252602f908201527f476f7665726e6f72416c7068613a3a63616e63656c3a2070726f706f7365722060408201526e18589bdd99481d1a1c995cda1bdb19608a1b606082015260800190565b60208082526044908201527f476f7665726e6f72416c7068613a3a5f71756575654f725265766572743a207060408201527f726f706f73616c20616374696f6e20616c7265616479207175657565642061746060820152632065746160e01b608082015260a00190565b6020808252602c908201527f476f7665726e6f72416c7068613a3a70726f706f73653a206d7573742070726f60408201526b7669646520616374696f6e7360a01b606082015260800190565b6020808252603f908201527f476f7665726e6f72416c7068613a3a70726f706f73653a2070726f706f73657260408201527f20766f7465732062656c6f772070726f706f73616c207468726573686f6c6400606082015260800190565b6020808252602f908201527f476f7665726e6f72416c7068613a3a63617374566f746542795369673a20696e60408201526e76616c6964207369676e617475726560881b606082015260800190565b60208082526058908201527f476f7665726e6f72416c7068613a3a70726f706f73653a206f6e65206c69766560408201527f2070726f706f73616c207065722070726f706f7365722c20666f756e6420616e60608201527f20616c7265616479206163746976652070726f706f73616c0000000000000000608082015260a00190565b60208082526036908201527f476f7665726e6f72416c7068613a3a63616e63656c3a2063616e6e6f742063616040820152751b98d95b08195e1958dd5d1959081c1c9bdc1bdcd85b60521b606082015260800190565b6020808252602a908201527f476f7665726e6f72416c7068613a3a5f63617374566f74653a20766f74696e67604082015269081a5cc818db1bdcd95960b21b606082015260800190565b6020808252601590820152747375627472616374696f6e20756e646572666c6f7760581b604082015260600190565b60208082526036908201527f476f7665726e6f72416c7068613a3a5f5f61626469636174653a2073656e6465604082015275391036bab9ba1031329033b7bb1033bab0b93234b0b760511b606082015260800190565b8151151581526020808301511515908201526040918201519181019190915260600190565b8981526001600160a01b0389166020820152610120604082018190526000906130728382018b612508565b90508281036060840152613086818a61259e565b9050828103608084015261309a818961254b565b905082810360a08401526130ae818861254b565b90508560c08401528460e08401528281036101008401526130cf81856125cd565b9c9b505050505050505050505050565b9889526001600160a01b0397909716602089015260408801959095526060870193909352608086019190915260a085015260c0840152151560e083015215156101008201526101200190565b918252602082015260400190565b60405181810167ffffffffffffffff8111828210171561315857600080fd5b604052919050565b600067ffffffffffffffff821115613176578081fd5b5060209081020190565b600067ffffffffffffffff821115613196578081fd5b50601f01601f191660200190565b60009081526020902090565b60005b838110156131cb5781810151838201526020016131b3565b8381111561114d5750506000910152565b801515811461209b57600080fdfea26469706673582212206ea46dd6e99332cdbb23af887de2b420d587ac536c137056915792428ddcf9c064736f6c634300060c0033",
  "immutableReferences": {},
  "source": "pragma solidity ^0.6.12;\npragma experimental ABIEncoderV2;\n\nimport \"../heco/MdxTokenHeco.sol\";\n\ncontract GovernorAlpha {\n    /// @notice The name of this contract\n    string public constant name = \"MDX Governor Alpha\";\n\n    /// @notice The number of votes in support of a proposal required in order for a quorum to be reached and for a vote to succeed\n    function quorumVotes() public view returns (uint) {return mdx.totalSupply() / 25;} // 400,000 = 4% of MDX\n\n    /// @notice The number of votes required in order for a voter to become a proposer\n    function proposalThreshold() public view returns (uint) {return mdx.totalSupply() / 100;} // 100,000 = 1% of MDX\n\n    /// @notice The maximum number of actions that can be included in a proposal\n    function proposalMaxOperations() public pure returns (uint) {return 10;} // 10 actions\n\n    /// @notice The delay before voting on a proposal may take place, once proposed\n    function votingDelay() public pure returns (uint) {return 1;} // 1 block\n\n    /// @notice The duration of voting on a proposal, in blocks\n    function votingPeriod() public pure returns (uint) {return 86400;} // ~3 days in blocks (assuming 3s blocks)\n\n    /// @notice The address of the MDX Protocol Timelock\n    TimelockInterface public timelock;\n\n    /// @notice The address of the MDX governance token\n    MdxToken public mdx;\n\n    /// @notice The address of the Governor Guardian\n    address public guardian;\n\n    /// @notice The total number of proposals\n    uint public proposalCount;\n\n    struct Proposal {\n        /// @notice Unique id for looking up a proposal\n        uint id;\n\n        /// @notice Creator of the proposal\n        address proposer;\n\n        /// @notice The timestamp that the proposal will be available for execution, set once the vote succeeds\n        uint eta;\n\n        /// @notice the ordered list of target addresses for calls to be made\n        address[] targets;\n\n        /// @notice The ordered list of values (i.e. msg.value) to be passed to the calls to be made\n        uint[] values;\n\n        /// @notice The ordered list of function signatures to be called\n        string[] signatures;\n\n        /// @notice The ordered list of calldata to be passed to each call\n        bytes[] calldatas;\n\n        /// @notice The block at which voting begins: holders must delegate their votes prior to this block\n        uint startBlock;\n\n        /// @notice The block at which voting ends: votes must be cast prior to this block\n        uint endBlock;\n\n        /// @notice Current number of votes in favor of this proposal\n        uint forVotes;\n\n        /// @notice Current number of votes in opposition to this proposal\n        uint againstVotes;\n\n        /// @notice Flag marking whether the proposal has been canceled\n        bool canceled;\n\n        /// @notice Flag marking whether the proposal has been executed\n        bool executed;\n\n        /// @notice Receipts of ballots for the entire set of voters\n        mapping(address => Receipt) receipts;\n    }\n\n    /// @notice Ballot receipt record for a voter\n    struct Receipt {\n        /// @notice Whether or not a vote has been cast\n        bool hasVoted;\n\n        /// @notice Whether or not the voter supports the proposal\n        bool support;\n\n        /// @notice The number of votes the voter had, which were cast\n        uint256 votes;\n    }\n\n    /// @notice Possible states that a proposal may be in\n    enum ProposalState {\n        Pending,\n        Active,\n        Canceled,\n        Defeated,\n        Succeeded,\n        Queued,\n        Expired,\n        Executed\n    }\n\n    /// @notice The official record of all proposals ever proposed\n    mapping(uint => Proposal) public proposals;\n\n    /// @notice The latest proposal for each proposer\n    mapping(address => uint) public latestProposalIds;\n\n    /// @notice The EIP-712 typehash for the contract's domain\n    bytes32 public constant DOMAIN_TYPEHASH = keccak256(\"EIP712Domain(string name,uint256 chainId,address verifyingContract)\");\n\n    /// @notice The EIP-712 typehash for the ballot struct used by the contract\n    bytes32 public constant BALLOT_TYPEHASH = keccak256(\"Ballot(uint256 proposalId,bool support)\");\n\n    /// @notice An event emitted when a new proposal is created\n    event ProposalCreated(uint id, address proposer, address[] targets, uint[] values, string[] signatures, bytes[] calldatas, uint startBlock, uint endBlock, string description);\n\n    /// @notice An event emitted when a vote has been cast on a proposal\n    event VoteCast(address voter, uint proposalId, bool support, uint votes);\n\n    /// @notice An event emitted when a proposal has been canceled\n    event ProposalCanceled(uint id);\n\n    /// @notice An event emitted when a proposal has been queued in the Timelock\n    event ProposalQueued(uint id, uint eta);\n\n    /// @notice An event emitted when a proposal has been executed in the Timelock\n    event ProposalExecuted(uint id);\n\n    constructor(address timelock_, address mdx_, address guardian_) public {\n        timelock = TimelockInterface(timelock_);\n        mdx = MdxToken(mdx_);\n        guardian = guardian_;\n    }\n\n    function propose(address[] memory targets, uint[] memory values, string[] memory signatures, bytes[] memory calldatas, string memory description) public returns (uint) {\n        require(mdx.getPriorVotes(msg.sender, sub256(block.number, 1)) > proposalThreshold(), \"GovernorAlpha::propose: proposer votes below proposal threshold\");\n        require(targets.length == values.length && targets.length == signatures.length && targets.length == calldatas.length, \"GovernorAlpha::propose: proposal function information arity mismatch\");\n        require(targets.length != 0, \"GovernorAlpha::propose: must provide actions\");\n        require(targets.length <= proposalMaxOperations(), \"GovernorAlpha::propose: too many actions\");\n\n        uint latestProposalId = latestProposalIds[msg.sender];\n        if (latestProposalId != 0) {\n            ProposalState proposersLatestProposalState = state(latestProposalId);\n            require(proposersLatestProposalState != ProposalState.Active, \"GovernorAlpha::propose: one live proposal per proposer, found an already active proposal\");\n            require(proposersLatestProposalState != ProposalState.Pending, \"GovernorAlpha::propose: one live proposal per proposer, found an already pending proposal\");\n        }\n\n        uint startBlock = add256(block.number, votingDelay());\n        uint endBlock = add256(startBlock, votingPeriod());\n\n        proposalCount++;\n        Proposal memory newProposal = Proposal({\n        id : proposalCount,\n        proposer : msg.sender,\n        eta : 0,\n        targets : targets,\n        values : values,\n        signatures : signatures,\n        calldatas : calldatas,\n        startBlock : startBlock,\n        endBlock : endBlock,\n        forVotes : 0,\n        againstVotes : 0,\n        canceled : false,\n        executed : false\n        });\n\n        proposals[newProposal.id] = newProposal;\n        latestProposalIds[newProposal.proposer] = newProposal.id;\n\n        emit ProposalCreated(newProposal.id, msg.sender, targets, values, signatures, calldatas, startBlock, endBlock, description);\n        return newProposal.id;\n    }\n\n    function queue(uint proposalId) public {\n        require(state(proposalId) == ProposalState.Succeeded, \"GovernorAlpha::queue: proposal can only be queued if it is succeeded\");\n        Proposal storage proposal = proposals[proposalId];\n        uint eta = add256(block.timestamp, timelock.delay());\n        for (uint i = 0; i < proposal.targets.length; i++) {\n            _queueOrRevert(proposal.targets[i], proposal.values[i], proposal.signatures[i], proposal.calldatas[i], eta);\n        }\n        proposal.eta = eta;\n        emit ProposalQueued(proposalId, eta);\n    }\n\n    function _queueOrRevert(address target, uint value, string memory signature, bytes memory data, uint eta) internal {\n        require(!timelock.queuedTransactions(keccak256(abi.encode(target, value, signature, data, eta))), \"GovernorAlpha::_queueOrRevert: proposal action already queued at eta\");\n        timelock.queueTransaction(target, value, signature, data, eta);\n    }\n\n    function execute(uint proposalId) public payable {\n        require(state(proposalId) == ProposalState.Queued, \"GovernorAlpha::execute: proposal can only be executed if it is queued\");\n        Proposal storage proposal = proposals[proposalId];\n        proposal.executed = true;\n        for (uint i = 0; i < proposal.targets.length; i++) {\n            timelock.executeTransaction{value : proposal.values[i]}(proposal.targets[i], proposal.values[i], proposal.signatures[i], proposal.calldatas[i], proposal.eta);\n        }\n        emit ProposalExecuted(proposalId);\n    }\n\n    function cancel(uint proposalId) public {\n        ProposalState state = state(proposalId);\n        require(state != ProposalState.Executed, \"GovernorAlpha::cancel: cannot cancel executed proposal\");\n\n        Proposal storage proposal = proposals[proposalId];\n        require(msg.sender == guardian || mdx.getPriorVotes(proposal.proposer, sub256(block.number, 1)) < proposalThreshold(), \"GovernorAlpha::cancel: proposer above threshold\");\n\n        proposal.canceled = true;\n        for (uint i = 0; i < proposal.targets.length; i++) {\n            timelock.cancelTransaction(proposal.targets[i], proposal.values[i], proposal.signatures[i], proposal.calldatas[i], proposal.eta);\n        }\n\n        emit ProposalCanceled(proposalId);\n    }\n\n    function getActions(uint proposalId) public view returns (address[] memory targets, uint[] memory values, string[] memory signatures, bytes[] memory calldatas) {\n        Proposal storage p = proposals[proposalId];\n        return (p.targets, p.values, p.signatures, p.calldatas);\n    }\n\n    function getReceipt(uint proposalId, address voter) public view returns (Receipt memory) {\n        return proposals[proposalId].receipts[voter];\n    }\n\n    function state(uint proposalId) public view returns (ProposalState) {\n        require(proposalCount >= proposalId && proposalId > 0, \"GovernorAlpha::state: invalid proposal id\");\n        Proposal storage proposal = proposals[proposalId];\n        if (proposal.canceled) {\n            return ProposalState.Canceled;\n        } else if (block.number <= proposal.startBlock) {\n            return ProposalState.Pending;\n        } else if (block.number <= proposal.endBlock) {\n            return ProposalState.Active;\n        } else if (proposal.forVotes <= proposal.againstVotes || proposal.forVotes < quorumVotes()) {\n            return ProposalState.Defeated;\n        } else if (proposal.eta == 0) {\n            return ProposalState.Succeeded;\n        } else if (proposal.executed) {\n            return ProposalState.Executed;\n        } else if (block.timestamp >= add256(proposal.eta, timelock.GRACE_PERIOD())) {\n            return ProposalState.Expired;\n        } else {\n            return ProposalState.Queued;\n        }\n    }\n\n    function castVote(uint proposalId, bool support) public {\n        return _castVote(msg.sender, proposalId, support);\n    }\n\n    function castVoteBySig(uint proposalId, bool support, uint8 v, bytes32 r, bytes32 s) public {\n        bytes32 domainSeparator = keccak256(abi.encode(DOMAIN_TYPEHASH, keccak256(bytes(name)), getChainId(), address(this)));\n        bytes32 structHash = keccak256(abi.encode(BALLOT_TYPEHASH, proposalId, support));\n        bytes32 digest = keccak256(abi.encodePacked(\"\\x19\\x01\", domainSeparator, structHash));\n        address signatory = ecrecover(digest, v, r, s);\n        require(signatory != address(0), \"GovernorAlpha::castVoteBySig: invalid signature\");\n        return _castVote(signatory, proposalId, support);\n    }\n\n    function _castVote(address voter, uint proposalId, bool support) internal {\n        require(state(proposalId) == ProposalState.Active, \"GovernorAlpha::_castVote: voting is closed\");\n        Proposal storage proposal = proposals[proposalId];\n        Receipt storage receipt = proposal.receipts[voter];\n        require(receipt.hasVoted == false, \"GovernorAlpha::_castVote: voter already voted\");\n        uint256 votes = mdx.getPriorVotes(voter, proposal.startBlock);\n\n        if (support) {\n            proposal.forVotes = add256(proposal.forVotes, votes);\n        } else {\n            proposal.againstVotes = add256(proposal.againstVotes, votes);\n        }\n\n        receipt.hasVoted = true;\n        receipt.support = support;\n        receipt.votes = votes;\n\n        emit VoteCast(voter, proposalId, support, votes);\n    }\n\n    function __acceptAdmin() public {\n        require(msg.sender == guardian, \"GovernorAlpha::__acceptAdmin: sender must be gov guardian\");\n        timelock.acceptAdmin();\n    }\n\n    function __abdicate() public {\n        require(msg.sender == guardian, \"GovernorAlpha::__abdicate: sender must be gov guardian\");\n        guardian = address(0);\n    }\n\n    function __queueSetTimelockPendingAdmin(address newPendingAdmin, uint eta) public {\n        require(msg.sender == guardian, \"GovernorAlpha::__queueSetTimelockPendingAdmin: sender must be gov guardian\");\n        timelock.queueTransaction(address(timelock), 0, \"setPendingAdmin(address)\", abi.encode(newPendingAdmin), eta);\n    }\n\n    function __executeSetTimelockPendingAdmin(address newPendingAdmin, uint eta) public {\n        require(msg.sender == guardian, \"GovernorAlpha::__executeSetTimelockPendingAdmin: sender must be gov guardian\");\n        timelock.executeTransaction(address(timelock), 0, \"setPendingAdmin(address)\", abi.encode(newPendingAdmin), eta);\n    }\n\n    function add256(uint256 a, uint256 b) internal pure returns (uint) {\n        uint c = a + b;\n        require(c >= a, \"addition overflow\");\n        return c;\n    }\n\n    function sub256(uint256 a, uint256 b) internal pure returns (uint) {\n        require(b <= a, \"subtraction underflow\");\n        return a - b;\n    }\n\n    function getChainId() internal pure returns (uint) {\n        uint chainId;\n        assembly {chainId := chainid()}\n        return chainId;\n    }\n}\n\ninterface TimelockInterface {\n    function delay() external view returns (uint);\n\n    function GRACE_PERIOD() external view returns (uint);\n\n    function acceptAdmin() external;\n\n    function queuedTransactions(bytes32 hash) external view returns (bool);\n\n    function queueTransaction(address target, uint value, string calldata signature, bytes calldata data, uint eta) external returns (bytes32);\n\n    function cancelTransaction(address target, uint value, string calldata signature, bytes calldata data, uint eta) external;\n\n    function executeTransaction(address target, uint value, string calldata signature, bytes calldata data, uint eta) external payable returns (bytes memory);\n}\n",
  "sourcePath": "/Users/fong/work/heco/mdex/contracts/contracts/governance/GovernorAlpha.sol",
  "compiler": {
    "name": "solc",
    "version": "0.6.12+commit.27d51765.Emscripten.clang"
  },
  "schemaVersion": "3.2.0",
  "updatedAt": "2021-02-02T03:00:33.605Z",
  "devdoc": {
    "kind": "dev",
    "methods": {},
    "version": 1
  },
  "userdoc": {
    "events": {
      "ProposalCanceled(uint256)": {
        "notice": "An event emitted when a proposal has been canceled"
      },
      "ProposalCreated(uint256,address,address[],uint256[],string[],bytes[],uint256,uint256,string)": {
        "notice": "An event emitted when a new proposal is created"
      },
      "ProposalExecuted(uint256)": {
        "notice": "An event emitted when a proposal has been executed in the Timelock"
      },
      "ProposalQueued(uint256,uint256)": {
        "notice": "An event emitted when a proposal has been queued in the Timelock"
      },
      "VoteCast(address,uint256,bool,uint256)": {
        "notice": "An event emitted when a vote has been cast on a proposal"
      }
    },
    "kind": "user",
    "methods": {
      "BALLOT_TYPEHASH()": {
        "notice": "The EIP-712 typehash for the ballot struct used by the contract"
      },
      "DOMAIN_TYPEHASH()": {
        "notice": "The EIP-712 typehash for the contract's domain"
      },
      "guardian()": {
        "notice": "The address of the Governor Guardian"
      },
      "latestProposalIds(address)": {
        "notice": "The latest proposal for each proposer"
      },
      "mdx()": {
        "notice": "The address of the MDX governance token"
      },
      "name()": {
        "notice": "The name of this contract"
      },
      "proposalCount()": {
        "notice": "The total number of proposals"
      },
      "proposalMaxOperations()": {
        "notice": "The maximum number of actions that can be included in a proposal"
      },
      "proposalThreshold()": {
        "notice": "The number of votes required in order for a voter to become a proposer"
      },
      "proposals(uint256)": {
        "notice": "The official record of all proposals ever proposed"
      },
      "quorumVotes()": {
        "notice": "The number of votes in support of a proposal required in order for a quorum to be reached and for a vote to succeed"
      },
      "timelock()": {
        "notice": "The address of the MDX Protocol Timelock"
      },
      "votingDelay()": {
        "notice": "The delay before voting on a proposal may take place, once proposed"
      },
      "votingPeriod()": {
        "notice": "The duration of voting on a proposal, in blocks"
      }
    },
    "version": 1
  }
}