{
  "contractName": "MdexRouter",
  "abi": [
    {
      "inputs": [
        {
          "internalType": "address",
          "name": "_factory",
          "type": "address"
        },
        {
          "internalType": "address",
          "name": "_WHT",
          "type": "address"
        }
      ],
      "stateMutability": "nonpayable",
      "type": "constructor"
    },
    {
      "anonymous": false,
      "inputs": [
        {
          "indexed": true,
          "internalType": "address",
          "name": "previousOwner",
          "type": "address"
        },
        {
          "indexed": true,
          "internalType": "address",
          "name": "newOwner",
          "type": "address"
        }
      ],
      "name": "OwnershipTransferred",
      "type": "event"
    },
    {
      "inputs": [],
      "name": "WHT",
      "outputs": [
        {
          "internalType": "address",
          "name": "",
          "type": "address"
        }
      ],
      "stateMutability": "view",
      "type": "function"
    },
    {
      "inputs": [],
      "name": "factory",
      "outputs": [
        {
          "internalType": "address",
          "name": "",
          "type": "address"
        }
      ],
      "stateMutability": "view",
      "type": "function"
    },
    {
      "inputs": [],
      "name": "owner",
      "outputs": [
        {
          "internalType": "address",
          "name": "",
          "type": "address"
        }
      ],
      "stateMutability": "view",
      "type": "function"
    },
    {
      "inputs": [],
      "name": "renounceOwnership",
      "outputs": [],
      "stateMutability": "nonpayable",
      "type": "function"
    },
    {
      "inputs": [],
      "name": "swapMining",
      "outputs": [
        {
          "internalType": "address",
          "name": "",
          "type": "address"
        }
      ],
      "stateMutability": "view",
      "type": "function"
    },
    {
      "inputs": [
        {
          "internalType": "address",
          "name": "newOwner",
          "type": "address"
        }
      ],
      "name": "transferOwnership",
      "outputs": [],
      "stateMutability": "nonpayable",
      "type": "function"
    },
    {
      "stateMutability": "payable",
      "type": "receive"
    },
    {
      "inputs": [
        {
          "internalType": "address",
          "name": "tokenA",
          "type": "address"
        },
        {
          "internalType": "address",
          "name": "tokenB",
          "type": "address"
        }
      ],
      "name": "pairFor",
      "outputs": [
        {
          "internalType": "address",
          "name": "pair",
          "type": "address"
        }
      ],
      "stateMutability": "view",
      "type": "function"
    },
    {
      "inputs": [
        {
          "internalType": "address",
          "name": "_swapMininng",
          "type": "address"
        }
      ],
      "name": "setSwapMining",
      "outputs": [],
      "stateMutability": "nonpayable",
      "type": "function"
    },
    {
      "inputs": [
        {
          "internalType": "address",
          "name": "tokenA",
          "type": "address"
        },
        {
          "internalType": "address",
          "name": "tokenB",
          "type": "address"
        },
        {
          "internalType": "uint256",
          "name": "amountADesired",
          "type": "uint256"
        },
        {
          "internalType": "uint256",
          "name": "amountBDesired",
          "type": "uint256"
        },
        {
          "internalType": "uint256",
          "name": "amountAMin",
          "type": "uint256"
        },
        {
          "internalType": "uint256",
          "name": "amountBMin",
          "type": "uint256"
        },
        {
          "internalType": "address",
          "name": "to",
          "type": "address"
        },
        {
          "internalType": "uint256",
          "name": "deadline",
          "type": "uint256"
        }
      ],
      "name": "addLiquidity",
      "outputs": [
        {
          "internalType": "uint256",
          "name": "amountA",
          "type": "uint256"
        },
        {
          "internalType": "uint256",
          "name": "amountB",
          "type": "uint256"
        },
        {
          "internalType": "uint256",
          "name": "liquidity",
          "type": "uint256"
        }
      ],
      "stateMutability": "nonpayable",
      "type": "function"
    },
    {
      "inputs": [
        {
          "internalType": "address",
          "name": "token",
          "type": "address"
        },
        {
          "internalType": "uint256",
          "name": "amountTokenDesired",
          "type": "uint256"
        },
        {
          "internalType": "uint256",
          "name": "amountTokenMin",
          "type": "uint256"
        },
        {
          "internalType": "uint256",
          "name": "amountETHMin",
          "type": "uint256"
        },
        {
          "internalType": "address",
          "name": "to",
          "type": "address"
        },
        {
          "internalType": "uint256",
          "name": "deadline",
          "type": "uint256"
        }
      ],
      "name": "addLiquidityETH",
      "outputs": [
        {
          "internalType": "uint256",
          "name": "amountToken",
          "type": "uint256"
        },
        {
          "internalType": "uint256",
          "name": "amountETH",
          "type": "uint256"
        },
        {
          "internalType": "uint256",
          "name": "liquidity",
          "type": "uint256"
        }
      ],
      "stateMutability": "payable",
      "type": "function"
    },
    {
      "inputs": [
        {
          "internalType": "address",
          "name": "tokenA",
          "type": "address"
        },
        {
          "internalType": "address",
          "name": "tokenB",
          "type": "address"
        },
        {
          "internalType": "uint256",
          "name": "liquidity",
          "type": "uint256"
        },
        {
          "internalType": "uint256",
          "name": "amountAMin",
          "type": "uint256"
        },
        {
          "internalType": "uint256",
          "name": "amountBMin",
          "type": "uint256"
        },
        {
          "internalType": "address",
          "name": "to",
          "type": "address"
        },
        {
          "internalType": "uint256",
          "name": "deadline",
          "type": "uint256"
        }
      ],
      "name": "removeLiquidity",
      "outputs": [
        {
          "internalType": "uint256",
          "name": "amountA",
          "type": "uint256"
        },
        {
          "internalType": "uint256",
          "name": "amountB",
          "type": "uint256"
        }
      ],
      "stateMutability": "nonpayable",
      "type": "function"
    },
    {
      "inputs": [
        {
          "internalType": "address",
          "name": "token",
          "type": "address"
        },
        {
          "internalType": "uint256",
          "name": "liquidity",
          "type": "uint256"
        },
        {
          "internalType": "uint256",
          "name": "amountTokenMin",
          "type": "uint256"
        },
        {
          "internalType": "uint256",
          "name": "amountETHMin",
          "type": "uint256"
        },
        {
          "internalType": "address",
          "name": "to",
          "type": "address"
        },
        {
          "internalType": "uint256",
          "name": "deadline",
          "type": "uint256"
        }
      ],
      "name": "removeLiquidityETH",
      "outputs": [
        {
          "internalType": "uint256",
          "name": "amountToken",
          "type": "uint256"
        },
        {
          "internalType": "uint256",
          "name": "amountETH",
          "type": "uint256"
        }
      ],
      "stateMutability": "nonpayable",
      "type": "function"
    },
    {
      "inputs": [
        {
          "internalType": "address",
          "name": "tokenA",
          "type": "address"
        },
        {
          "internalType": "address",
          "name": "tokenB",
          "type": "address"
        },
        {
          "internalType": "uint256",
          "name": "liquidity",
          "type": "uint256"
        },
        {
          "internalType": "uint256",
          "name": "amountAMin",
          "type": "uint256"
        },
        {
          "internalType": "uint256",
          "name": "amountBMin",
          "type": "uint256"
        },
        {
          "internalType": "address",
          "name": "to",
          "type": "address"
        },
        {
          "internalType": "uint256",
          "name": "deadline",
          "type": "uint256"
        },
        {
          "internalType": "bool",
          "name": "approveMax",
          "type": "bool"
        },
        {
          "internalType": "uint8",
          "name": "v",
          "type": "uint8"
        },
        {
          "internalType": "bytes32",
          "name": "r",
          "type": "bytes32"
        },
        {
          "internalType": "bytes32",
          "name": "s",
          "type": "bytes32"
        }
      ],
      "name": "removeLiquidityWithPermit",
      "outputs": [
        {
          "internalType": "uint256",
          "name": "amountA",
          "type": "uint256"
        },
        {
          "internalType": "uint256",
          "name": "amountB",
          "type": "uint256"
        }
      ],
      "stateMutability": "nonpayable",
      "type": "function"
    },
    {
      "inputs": [
        {
          "internalType": "address",
          "name": "token",
          "type": "address"
        },
        {
          "internalType": "uint256",
          "name": "liquidity",
          "type": "uint256"
        },
        {
          "internalType": "uint256",
          "name": "amountTokenMin",
          "type": "uint256"
        },
        {
          "internalType": "uint256",
          "name": "amountETHMin",
          "type": "uint256"
        },
        {
          "internalType": "address",
          "name": "to",
          "type": "address"
        },
        {
          "internalType": "uint256",
          "name": "deadline",
          "type": "uint256"
        },
        {
          "internalType": "bool",
          "name": "approveMax",
          "type": "bool"
        },
        {
          "internalType": "uint8",
          "name": "v",
          "type": "uint8"
        },
        {
          "internalType": "bytes32",
          "name": "r",
          "type": "bytes32"
        },
        {
          "internalType": "bytes32",
          "name": "s",
          "type": "bytes32"
        }
      ],
      "name": "removeLiquidityETHWithPermit",
      "outputs": [
        {
          "internalType": "uint256",
          "name": "amountToken",
          "type": "uint256"
        },
        {
          "internalType": "uint256",
          "name": "amountETH",
          "type": "uint256"
        }
      ],
      "stateMutability": "nonpayable",
      "type": "function"
    },
    {
      "inputs": [
        {
          "internalType": "address",
          "name": "token",
          "type": "address"
        },
        {
          "internalType": "uint256",
          "name": "liquidity",
          "type": "uint256"
        },
        {
          "internalType": "uint256",
          "name": "amountTokenMin",
          "type": "uint256"
        },
        {
          "internalType": "uint256",
          "name": "amountETHMin",
          "type": "uint256"
        },
        {
          "internalType": "address",
          "name": "to",
          "type": "address"
        },
        {
          "internalType": "uint256",
          "name": "deadline",
          "type": "uint256"
        }
      ],
      "name": "removeLiquidityETHSupportingFeeOnTransferTokens",
      "outputs": [
        {
          "internalType": "uint256",
          "name": "amountETH",
          "type": "uint256"
        }
      ],
      "stateMutability": "nonpayable",
      "type": "function"
    },
    {
      "inputs": [
        {
          "internalType": "address",
          "name": "token",
          "type": "address"
        },
        {
          "internalType": "uint256",
          "name": "liquidity",
          "type": "uint256"
        },
        {
          "internalType": "uint256",
          "name": "amountTokenMin",
          "type": "uint256"
        },
        {
          "internalType": "uint256",
          "name": "amountETHMin",
          "type": "uint256"
        },
        {
          "internalType": "address",
          "name": "to",
          "type": "address"
        },
        {
          "internalType": "uint256",
          "name": "deadline",
          "type": "uint256"
        },
        {
          "internalType": "bool",
          "name": "approveMax",
          "type": "bool"
        },
        {
          "internalType": "uint8",
          "name": "v",
          "type": "uint8"
        },
        {
          "internalType": "bytes32",
          "name": "r",
          "type": "bytes32"
        },
        {
          "internalType": "bytes32",
          "name": "s",
          "type": "bytes32"
        }
      ],
      "name": "removeLiquidityETHWithPermitSupportingFeeOnTransferTokens",
      "outputs": [
        {
          "internalType": "uint256",
          "name": "amountETH",
          "type": "uint256"
        }
      ],
      "stateMutability": "nonpayable",
      "type": "function"
    },
    {
      "inputs": [
        {
          "internalType": "uint256",
          "name": "amountIn",
          "type": "uint256"
        },
        {
          "internalType": "uint256",
          "name": "amountOutMin",
          "type": "uint256"
        },
        {
          "internalType": "address[]",
          "name": "path",
          "type": "address[]"
        },
        {
          "internalType": "address",
          "name": "to",
          "type": "address"
        },
        {
          "internalType": "uint256",
          "name": "deadline",
          "type": "uint256"
        }
      ],
      "name": "swapExactTokensForTokens",
      "outputs": [
        {
          "internalType": "uint256[]",
          "name": "amounts",
          "type": "uint256[]"
        }
      ],
      "stateMutability": "nonpayable",
      "type": "function"
    },
    {
      "inputs": [
        {
          "internalType": "uint256",
          "name": "amountOut",
          "type": "uint256"
        },
        {
          "internalType": "uint256",
          "name": "amountInMax",
          "type": "uint256"
        },
        {
          "internalType": "address[]",
          "name": "path",
          "type": "address[]"
        },
        {
          "internalType": "address",
          "name": "to",
          "type": "address"
        },
        {
          "internalType": "uint256",
          "name": "deadline",
          "type": "uint256"
        }
      ],
      "name": "swapTokensForExactTokens",
      "outputs": [
        {
          "internalType": "uint256[]",
          "name": "amounts",
          "type": "uint256[]"
        }
      ],
      "stateMutability": "nonpayable",
      "type": "function"
    },
    {
      "inputs": [
        {
          "internalType": "uint256",
          "name": "amountOutMin",
          "type": "uint256"
        },
        {
          "internalType": "address[]",
          "name": "path",
          "type": "address[]"
        },
        {
          "internalType": "address",
          "name": "to",
          "type": "address"
        },
        {
          "internalType": "uint256",
          "name": "deadline",
          "type": "uint256"
        }
      ],
      "name": "swapExactETHForTokens",
      "outputs": [
        {
          "internalType": "uint256[]",
          "name": "amounts",
          "type": "uint256[]"
        }
      ],
      "stateMutability": "payable",
      "type": "function"
    },
    {
      "inputs": [
        {
          "internalType": "uint256",
          "name": "amountOut",
          "type": "uint256"
        },
        {
          "internalType": "uint256",
          "name": "amountInMax",
          "type": "uint256"
        },
        {
          "internalType": "address[]",
          "name": "path",
          "type": "address[]"
        },
        {
          "internalType": "address",
          "name": "to",
          "type": "address"
        },
        {
          "internalType": "uint256",
          "name": "deadline",
          "type": "uint256"
        }
      ],
      "name": "swapTokensForExactETH",
      "outputs": [
        {
          "internalType": "uint256[]",
          "name": "amounts",
          "type": "uint256[]"
        }
      ],
      "stateMutability": "nonpayable",
      "type": "function"
    },
    {
      "inputs": [
        {
          "internalType": "uint256",
          "name": "amountIn",
          "type": "uint256"
        },
        {
          "internalType": "uint256",
          "name": "amountOutMin",
          "type": "uint256"
        },
        {
          "internalType": "address[]",
          "name": "path",
          "type": "address[]"
        },
        {
          "internalType": "address",
          "name": "to",
          "type": "address"
        },
        {
          "internalType": "uint256",
          "name": "deadline",
          "type": "uint256"
        }
      ],
      "name": "swapExactTokensForETH",
      "outputs": [
        {
          "internalType": "uint256[]",
          "name": "amounts",
          "type": "uint256[]"
        }
      ],
      "stateMutability": "nonpayable",
      "type": "function"
    },
    {
      "inputs": [
        {
          "internalType": "uint256",
          "name": "amountOut",
          "type": "uint256"
        },
        {
          "internalType": "address[]",
          "name": "path",
          "type": "address[]"
        },
        {
          "internalType": "address",
          "name": "to",
          "type": "address"
        },
        {
          "internalType": "uint256",
          "name": "deadline",
          "type": "uint256"
        }
      ],
      "name": "swapETHForExactTokens",
      "outputs": [
        {
          "internalType": "uint256[]",
          "name": "amounts",
          "type": "uint256[]"
        }
      ],
      "stateMutability": "payable",
      "type": "function"
    },
    {
      "inputs": [
        {
          "internalType": "uint256",
          "name": "amountIn",
          "type": "uint256"
        },
        {
          "internalType": "uint256",
          "name": "amountOutMin",
          "type": "uint256"
        },
        {
          "internalType": "address[]",
          "name": "path",
          "type": "address[]"
        },
        {
          "internalType": "address",
          "name": "to",
          "type": "address"
        },
        {
          "internalType": "uint256",
          "name": "deadline",
          "type": "uint256"
        }
      ],
      "name": "swapExactTokensForTokensSupportingFeeOnTransferTokens",
      "outputs": [],
      "stateMutability": "nonpayable",
      "type": "function"
    },
    {
      "inputs": [
        {
          "internalType": "uint256",
          "name": "amountOutMin",
          "type": "uint256"
        },
        {
          "internalType": "address[]",
          "name": "path",
          "type": "address[]"
        },
        {
          "internalType": "address",
          "name": "to",
          "type": "address"
        },
        {
          "internalType": "uint256",
          "name": "deadline",
          "type": "uint256"
        }
      ],
      "name": "swapExactETHForTokensSupportingFeeOnTransferTokens",
      "outputs": [],
      "stateMutability": "payable",
      "type": "function"
    },
    {
      "inputs": [
        {
          "internalType": "uint256",
          "name": "amountIn",
          "type": "uint256"
        },
        {
          "internalType": "uint256",
          "name": "amountOutMin",
          "type": "uint256"
        },
        {
          "internalType": "address[]",
          "name": "path",
          "type": "address[]"
        },
        {
          "internalType": "address",
          "name": "to",
          "type": "address"
        },
        {
          "internalType": "uint256",
          "name": "deadline",
          "type": "uint256"
        }
      ],
      "name": "swapExactTokensForETHSupportingFeeOnTransferTokens",
      "outputs": [],
      "stateMutability": "nonpayable",
      "type": "function"
    },
    {
      "inputs": [
        {
          "internalType": "uint256",
          "name": "amountA",
          "type": "uint256"
        },
        {
          "internalType": "uint256",
          "name": "reserveA",
          "type": "uint256"
        },
        {
          "internalType": "uint256",
          "name": "reserveB",
          "type": "uint256"
        }
      ],
      "name": "quote",
      "outputs": [
        {
          "internalType": "uint256",
          "name": "amountB",
          "type": "uint256"
        }
      ],
      "stateMutability": "view",
      "type": "function"
    },
    {
      "inputs": [
        {
          "internalType": "uint256",
          "name": "amountIn",
          "type": "uint256"
        },
        {
          "internalType": "uint256",
          "name": "reserveIn",
          "type": "uint256"
        },
        {
          "internalType": "uint256",
          "name": "reserveOut",
          "type": "uint256"
        }
      ],
      "name": "getAmountOut",
      "outputs": [
        {
          "internalType": "uint256",
          "name": "amountOut",
          "type": "uint256"
        }
      ],
      "stateMutability": "view",
      "type": "function"
    },
    {
      "inputs": [
        {
          "internalType": "uint256",
          "name": "amountOut",
          "type": "uint256"
        },
        {
          "internalType": "uint256",
          "name": "reserveIn",
          "type": "uint256"
        },
        {
          "internalType": "uint256",
          "name": "reserveOut",
          "type": "uint256"
        }
      ],
      "name": "getAmountIn",
      "outputs": [
        {
          "internalType": "uint256",
          "name": "amountIn",
          "type": "uint256"
        }
      ],
      "stateMutability": "view",
      "type": "function"
    },
    {
      "inputs": [
        {
          "internalType": "uint256",
          "name": "amountIn",
          "type": "uint256"
        },
        {
          "internalType": "address[]",
          "name": "path",
          "type": "address[]"
        }
      ],
      "name": "getAmountsOut",
      "outputs": [
        {
          "internalType": "uint256[]",
          "name": "amounts",
          "type": "uint256[]"
        }
      ],
      "stateMutability": "view",
      "type": "function"
    },
    {
      "inputs": [
        {
          "internalType": "uint256",
          "name": "amountOut",
          "type": "uint256"
        },
        {
          "internalType": "address[]",
          "name": "path",
          "type": "address[]"
        }
      ],
      "name": "getAmountsIn",
      "outputs": [
        {
          "internalType": "uint256[]",
          "name": "amounts",
          "type": "uint256[]"
        }
      ],
      "stateMutability": "view",
      "type": "function"
    }
  ],
  "bytecode": "0x60c06040523480156200001157600080fd5b506040516200504538038062005045833981810160405260408110156200003757600080fd5b50805160209091015160006200004c620000b5565b600080546001600160a01b0319166001600160a01b0383169081178255604051929350917f8be0079c531659141344cd1fd0a4f28419497f9722a3daafe3b4186f6b6457e0908290a3506001600160601b0319606092831b8116608052911b1660a052620000b9565b3390565b60805160601c60a05160601c614e77620001ce600039806101e15280610e465280610e81528061100d528061130e52806118c05280611ba45280611ee6528061200a52806120e552806121bf528061228d52806124d852806125605280612a6a5280612b1e5280612bea5280612c7f5280612cf3528061327452806135c752806135fc528061363052806136a452806138325280613a795280613b01525080610f1752806110c352806113ff5280611694528061197652806123495280612677528061275c52806128f952806129ac528061306652806131c2528061320e52806138ed528061404a5280614391528061454a528061484452806148fd52806149ad5280614a805280614b755250614e776000f3fe6080604052600436106101d15760003560e01c806385f8c259116100f7578063baa2abde11610095578063e8e3370011610064578063e8e3370014610c7c578063f2fde38b14610cfc578063f305d71914610d2f578063fb3bdb4114610d755761020a565b8063baa2abde14610ae2578063c45a015514610b3f578063d06ca61f14610b54578063ded9382a14610c095761020a565b806396ed28f9116100d157806396ed28f91461099a578063ad615dec146109d5578063af2979eb14610a0b578063b6f9de9514610a5e5761020a565b806385f8c259146108b95780638803dbee146108ef5780638da5cb5b146109855761020a565b80634e5eda111161016f5780635cb485921161013e5780635cb4859214610775578063715018a61461078a578063791ac9471461079f5780637ff36ab5146108355761020a565b80634e5eda11146106085780634f887183146106395780635b0d59841461066c5780635c11d795146106df5761020a565b80631f00ca74116101ab5780631f00ca74146103a95780632195995c1461045e57806338ed1739146104dc5780634a25d94a146105725761020a565b806302751cec1461020f578063054d50d41461027b57806318cbafe5146102c35761020a565b3661020a57336001600160a01b037f0000000000000000000000000000000000000000000000000000000000000000161461020857fe5b005b600080fd5b34801561021b57600080fd5b50610262600480360360c081101561023257600080fd5b506001600160a01b0381358116916020810135916040820135916060810135916080820135169060a00135610df9565b6040805192835260208301919091528051918290030190f35b34801561028757600080fd5b506102b16004803603606081101561029e57600080fd5b5080359060208101359060400135610f13565b60408051918252519081900360200190f35b3480156102cf57600080fd5b50610359600480360360a08110156102e657600080fd5b813591602081013591810190606081016040820135600160201b81111561030c57600080fd5b82018360208201111561031e57600080fd5b803590602001918460208302840111600160201b8311171561033f57600080fd5b91935091506001600160a01b038135169060200135610fbd565b60408051602080825283518183015283519192839290830191858101910280838360005b8381101561039557818101518382015260200161037d565b505050509050019250505060405180910390f35b3480156103b557600080fd5b50610359600480360360408110156103cc57600080fd5b81359190810190604081016020820135600160201b8111156103ed57600080fd5b8201836020820111156103ff57600080fd5b803590602001918460208302840111600160201b8311171561042057600080fd5b9190808060200260200160405190810160405280939291908181526020018383602002808284376000920191909152509295506113cd945050505050565b34801561046a57600080fd5b50610262600480360361016081101561048257600080fd5b506001600160a01b038135811691602081013582169160408201359160608101359160808201359160a08101359091169060c08101359060e081013515159060ff6101008201351690610120810135906101400135611548565b3480156104e857600080fd5b50610359600480360360a08110156104ff57600080fd5b813591602081013591810190606081016040820135600160201b81111561052557600080fd5b82018360208201111561053757600080fd5b803590602001918460208302840111600160201b8311171561055857600080fd5b91935091506001600160a01b038135169060200135611621565b34801561057e57600080fd5b50610359600480360360a081101561059557600080fd5b813591602081013591810190606081016040820135600160201b8111156105bb57600080fd5b8201836020820111156105cd57600080fd5b803590602001918460208302840111600160201b831117156105ee57600080fd5b91935091506001600160a01b038135169060200135611870565b34801561061457600080fd5b5061061d611b00565b604080516001600160a01b039092168252519081900360200190f35b34801561064557600080fd5b506102086004803603602081101561065c57600080fd5b50356001600160a01b0316611b0f565b34801561067857600080fd5b506102b1600480360361014081101561069057600080fd5b506001600160a01b0381358116916020810135916040820135916060810135916080820135169060a08101359060c081013515159060ff60e08201351690610100810135906101200135611b9b565b3480156106eb57600080fd5b50610208600480360360a081101561070257600080fd5b813591602081013591810190606081016040820135600160201b81111561072857600080fd5b82018360208201111561073a57600080fd5b803590602001918460208302840111600160201b8311171561075b57600080fd5b91935091506001600160a01b038135169060200135611c88565b34801561078157600080fd5b5061061d611ee4565b34801561079657600080fd5b50610208611f08565b3480156107ab57600080fd5b50610208600480360360a08110156107c257600080fd5b813591602081013591810190606081016040820135600160201b8111156107e857600080fd5b8201836020820111156107fa57600080fd5b803590602001918460208302840111600160201b8311171561081b57600080fd5b91935091506001600160a01b038135169060200135611fbc565b6103596004803603608081101561084b57600080fd5b81359190810190604081016020820135600160201b81111561086c57600080fd5b82018360208201111561087e57600080fd5b803590602001918460208302840111600160201b8311171561089f57600080fd5b91935091506001600160a01b038135169060200135612245565b3480156108c557600080fd5b506102b1600480360360608110156108dc57600080fd5b5080359060208101359060400135612673565b3480156108fb57600080fd5b50610359600480360360a081101561091257600080fd5b813591602081013591810190606081016040820135600160201b81111561093857600080fd5b82018360208201111561094a57600080fd5b803590602001918460208302840111600160201b8311171561096b57600080fd5b91935091506001600160a01b0381351690602001356126e9565b34801561099157600080fd5b5061061d6128e6565b3480156109a657600080fd5b5061061d600480360360408110156109bd57600080fd5b506001600160a01b03813581169160200135166128f5565b3480156109e157600080fd5b506102b1600480360360608110156109f857600080fd5b50803590602081013590604001356129a8565b348015610a1757600080fd5b506102b1600480360360c0811015610a2e57600080fd5b506001600160a01b0381358116916020810135916040820135916060810135916080820135169060a00135612a1e565b61020860048036036080811015610a7457600080fd5b81359190810190604081016020820135600160201b811115610a9557600080fd5b820183602082011115610aa757600080fd5b803590602001918460208302840111600160201b83111715610ac857600080fd5b91935091506001600160a01b038135169060200135612ba4565b348015610aee57600080fd5b50610262600480360360e0811015610b0557600080fd5b506001600160a01b038135811691602081013582169160408201359160608101359160808201359160a08101359091169060c00135612ef4565b348015610b4b57600080fd5b5061061d6131c0565b348015610b6057600080fd5b5061035960048036036040811015610b7757600080fd5b81359190810190604081016020820135600160201b811115610b9857600080fd5b820183602082011115610baa57600080fd5b803590602001918460208302840111600160201b83111715610bcb57600080fd5b9190808060200260200160405190810160405280939291908181526020018383602002808284376000920191909152509295506131e4945050505050565b348015610c1557600080fd5b506102626004803603610140811015610c2d57600080fd5b506001600160a01b0381358116916020810135916040820135916060810135916080820135169060a08101359060c081013515159060ff60e08201351690610100810135906101200135613269565b348015610c8857600080fd5b50610cde6004803603610100811015610ca057600080fd5b506001600160a01b038135811691602081013582169160408201359160608101359160808201359160a08101359160c0820135169060e0013561335c565b60408051938452602084019290925282820152519081900360600190f35b348015610d0857600080fd5b5061020860048036036020811015610d1f57600080fd5b50356001600160a01b031661346e565b610cde600480360360c0811015610d4557600080fd5b506001600160a01b0381358116916020810135916040820135916060810135916080820135169060a00135613578565b61035960048036036080811015610d8b57600080fd5b81359190810190604081016020820135600160201b811115610dac57600080fd5b820183602082011115610dbe57600080fd5b803590602001918460208302840111600160201b83111715610ddf57600080fd5b91935091506001600160a01b0381351690602001356137ea565b6000808242811015610e40576040805162461bcd60e51b81526020600482015260136024820152600080516020614dfe833981519152604482015290519081900360640190fd5b610e6f897f00000000000000000000000000000000000000000000000000000000000000008a8a8a308a612ef4565b9093509150610e7f898685613c46565b7f00000000000000000000000000000000000000000000000000000000000000006001600160a01b0316632e1a7d4d836040518263ffffffff1660e01b815260040180828152602001915050600060405180830381600087803b158015610ee557600080fd5b505af1158015610ef9573d6000803e3d6000fd5b50505050610f078583613db0565b50965096945050505050565b60007f00000000000000000000000000000000000000000000000000000000000000006001600160a01b031663054d50d48585856040518463ffffffff1660e01b815260040180848152602001838152602001828152602001935050505060206040518083038186803b158015610f8957600080fd5b505afa158015610f9d573d6000803e3d6000fd5b505050506040513d6020811015610fb357600080fd5b5051949350505050565b60608142811015611003576040805162461bcd60e51b81526020600482015260136024820152600080516020614dfe833981519152604482015290519081900360640190fd5b6001600160a01b037f0000000000000000000000000000000000000000000000000000000000000000168686600019810181811061103d57fe5b905060200201356001600160a01b03166001600160a01b031614611096576040805162461bcd60e51b81526020600482015260186024820152600080516020614d78833981519152604482015290519081900360640190fd5b6040805163d06ca61f60e01b8152600481018a815260248201928352604482018890526001600160a01b037f0000000000000000000000000000000000000000000000000000000000000000169263d06ca61f928c928b928b92606401846020850280828437600081840152601f19601f82011690508083019250505094505050505060006040518083038186803b15801561113157600080fd5b505afa158015611145573d6000803e3d6000fd5b505050506040513d6000823e601f3d908101601f19168201604052602081101561116e57600080fd5b8101908080516040519392919084600160201b82111561118d57600080fd5b9083019060208201858111156111a257600080fd5b82518660208202830111600160201b821117156111be57600080fd5b82525081516020918201928201910280838360005b838110156111eb5781810151838201526020016111d3565b505050509050016040525050509150868260018451038151811061120b57fe5b602002602001015110156112505760405162461bcd60e51b8152600401808060200182810382526026815260200180614d316026913960400191505060405180910390fd5b6112cd8686600081811061126057fe5b905060200201356001600160a01b0316336112b38989600081811061128157fe5b905060200201356001600160a01b03168a8a600181811061129e57fe5b905060200201356001600160a01b03166128f5565b856000815181106112c057fe5b6020026020010151613ea8565b61130c82878780806020026020016040519081016040528093929190818152602001838360200280828437600092019190915250309250614005915050565b7f00000000000000000000000000000000000000000000000000000000000000006001600160a01b0316632e1a7d4d8360018551038151811061134b57fe5b60200260200101516040518263ffffffff1660e01b815260040180828152602001915050600060405180830381600087803b15801561138957600080fd5b505af115801561139d573d6000803e3d6000fd5b505050506113c284836001855103815181106113b557fe5b6020026020010151613db0565b509695505050505050565b604080516307c0329d60e21b815260048101848152602482019283528351604483015283516060936001600160a01b037f00000000000000000000000000000000000000000000000000000000000000001693631f00ca7493889388939192606401906020808601910280838360005b8381101561145557818101518382015260200161143d565b50505050905001935050505060006040518083038186803b15801561147957600080fd5b505afa15801561148d573d6000803e3d6000fd5b505050506040513d6000823e601f3d908101601f1916820160405260208110156114b657600080fd5b8101908080516040519392919084600160201b8211156114d557600080fd5b9083019060208201858111156114ea57600080fd5b82518660208202830111600160201b8211171561150657600080fd5b82525081516020918201928201910280838360005b8381101561153357818101518382015260200161151b565b50505050905001604052505050905092915050565b60008060006115578e8e6128f5565b9050600087611566578c61156a565b6000195b6040805163d505accf60e01b815233600482015230602482015260448101839052606481018c905260ff8a16608482015260a4810189905260c4810188905290519192506001600160a01b0384169163d505accf9160e48082019260009290919082900301818387803b1580156115e057600080fd5b505af11580156115f4573d6000803e3d6000fd5b505050506116078f8f8f8f8f8f8f612ef4565b809450819550505050509b509b9950505050505050505050565b60608142811015611667576040805162461bcd60e51b81526020600482015260136024820152600080516020614dfe833981519152604482015290519081900360640190fd5b6040805163d06ca61f60e01b8152600481018a815260248201928352604482018890526001600160a01b037f0000000000000000000000000000000000000000000000000000000000000000169263d06ca61f928c928b928b92606401846020850280828437600081840152601f19601f82011690508083019250505094505050505060006040518083038186803b15801561170257600080fd5b505afa158015611716573d6000803e3d6000fd5b505050506040513d6000823e601f3d908101601f19168201604052602081101561173f57600080fd5b8101908080516040519392919084600160201b82111561175e57600080fd5b90830190602082018581111561177357600080fd5b82518660208202830111600160201b8211171561178f57600080fd5b82525081516020918201928201910280838360005b838110156117bc5781810151838201526020016117a4565b50505050905001604052505050915086826001845103815181106117dc57fe5b602002602001015110156118215760405162461bcd60e51b8152600401808060200182810382526026815260200180614d316026913960400191505060405180910390fd5b6118318686600081811061126057fe5b6113c282878780806020026020016040519081016040528093929190818152602001838360200280828437600092019190915250899250614005915050565b606081428110156118b6576040805162461bcd60e51b81526020600482015260136024820152600080516020614dfe833981519152604482015290519081900360640190fd5b6001600160a01b037f000000000000000000000000000000000000000000000000000000000000000016868660001981018181106118f057fe5b905060200201356001600160a01b03166001600160a01b031614611949576040805162461bcd60e51b81526020600482015260186024820152600080516020614d78833981519152604482015290519081900360640190fd5b604080516307c0329d60e21b8152600481018a815260248201928352604482018890526001600160a01b037f00000000000000000000000000000000000000000000000000000000000000001692631f00ca74928c928b928b92606401846020850280828437600081840152601f19601f82011690508083019250505094505050505060006040518083038186803b1580156119e457600080fd5b505afa1580156119f8573d6000803e3d6000fd5b505050506040513d6000823e601f3d908101601f191682016040526020811015611a2157600080fd5b8101908080516040519392919084600160201b821115611a4057600080fd5b908301906020820185811115611a5557600080fd5b82518660208202830111600160201b82111715611a7157600080fd5b82525081516020918201928201910280838360005b83811015611a9e578181015183820152602001611a86565b5050505090500160405250505091508682600081518110611abb57fe5b602002602001015111156112505760405162461bcd60e51b8152600401808060200182810382526022815260200180614db96022913960400191505060405180910390fd5b6001546001600160a01b031681565b611b17614348565b6000546001600160a01b03908116911614611b79576040805162461bcd60e51b815260206004820181905260248201527f4f776e61626c653a2063616c6c6572206973206e6f7420746865206f776e6572604482015290519081900360640190fd5b600180546001600160a01b0319166001600160a01b0392909216919091179055565b600080611bc88c7f00000000000000000000000000000000000000000000000000000000000000006128f5565b9050600086611bd7578b611bdb565b6000195b6040805163d505accf60e01b815233600482015230602482015260448101839052606481018b905260ff8916608482015260a4810188905260c4810187905290519192506001600160a01b0384169163d505accf9160e48082019260009290919082900301818387803b158015611c5157600080fd5b505af1158015611c65573d6000803e3d6000fd5b50505050611c778d8d8d8d8d8d612a1e565b9d9c50505050505050505050505050565b8042811015611ccc576040805162461bcd60e51b81526020600482015260136024820152600080516020614dfe833981519152604482015290519081900360640190fd5b611d2085856000818110611cdc57fe5b905060200201356001600160a01b031633611d1a88886000818110611cfd57fe5b905060200201356001600160a01b03168989600181811061129e57fe5b8a613ea8565b600085856000198101818110611d3257fe5b905060200201356001600160a01b03166001600160a01b03166370a08231856040518263ffffffff1660e01b815260040180826001600160a01b0316815260200191505060206040518083038186803b158015611d8e57600080fd5b505afa158015611da2573d6000803e3d6000fd5b505050506040513d6020811015611db857600080fd5b50516040805160208881028281018201909352888252929350611dfa92909189918991829185019084908082843760009201919091525088925061434c915050565b86611e9d8288886000198101818110611e0f57fe5b905060200201356001600160a01b03166001600160a01b03166370a08231886040518263ffffffff1660e01b815260040180826001600160a01b0316815260200191505060206040518083038186803b158015611e6b57600080fd5b505afa158015611e7f573d6000803e3d6000fd5b505050506040513d6020811015611e9557600080fd5b5051906147eb565b1015611eda5760405162461bcd60e51b8152600401808060200182810382526026815260200180614d316026913960400191505060405180910390fd5b5050505050505050565b7f000000000000000000000000000000000000000000000000000000000000000081565b611f10614348565b6000546001600160a01b03908116911614611f72576040805162461bcd60e51b815260206004820181905260248201527f4f776e61626c653a2063616c6c6572206973206e6f7420746865206f776e6572604482015290519081900360640190fd5b600080546040516001600160a01b03909116907f8be0079c531659141344cd1fd0a4f28419497f9722a3daafe3b4186f6b6457e0908390a3600080546001600160a01b0319169055565b8042811015612000576040805162461bcd60e51b81526020600482015260136024820152600080516020614dfe833981519152604482015290519081900360640190fd5b6001600160a01b037f0000000000000000000000000000000000000000000000000000000000000000168585600019810181811061203a57fe5b905060200201356001600160a01b03166001600160a01b031614612093576040805162461bcd60e51b81526020600482015260186024820152600080516020614d78833981519152604482015290519081900360640190fd5b6120a385856000818110611cdc57fe5b6120e185858080602002602001604051908101604052809392919081815260200183836020028082843760009201919091525030925061434c915050565b60007f00000000000000000000000000000000000000000000000000000000000000006001600160a01b03166370a08231306040518263ffffffff1660e01b815260040180826001600160a01b0316815260200191505060206040518083038186803b15801561215057600080fd5b505afa158015612164573d6000803e3d6000fd5b505050506040513d602081101561217a57600080fd5b50519050868110156121bd5760405162461bcd60e51b8152600401808060200182810382526026815260200180614d316026913960400191505060405180910390fd5b7f00000000000000000000000000000000000000000000000000000000000000006001600160a01b0316632e1a7d4d826040518263ffffffff1660e01b815260040180828152602001915050600060405180830381600087803b15801561222357600080fd5b505af1158015612237573d6000803e3d6000fd5b50505050611eda8482613db0565b6060814281101561228b576040805162461bcd60e51b81526020600482015260136024820152600080516020614dfe833981519152604482015290519081900360640190fd5b7f00000000000000000000000000000000000000000000000000000000000000006001600160a01b0316868660008181106122c257fe5b905060200201356001600160a01b03166001600160a01b03161461231b576040805162461bcd60e51b81526020600482015260186024820152600080516020614d78833981519152604482015290519081900360640190fd5b6040805163d06ca61f60e01b8152346004820181815260248301938452604483018990526001600160a01b037f0000000000000000000000000000000000000000000000000000000000000000169363d06ca61f938b928b929091606401846020850280828437600081840152601f19601f82011690508083019250505094505050505060006040518083038186803b1580156123b757600080fd5b505afa1580156123cb573d6000803e3d6000fd5b505050506040513d6000823e601f3d908101601f1916820160405260208110156123f457600080fd5b8101908080516040519392919084600160201b82111561241357600080fd5b90830190602082018581111561242857600080fd5b82518660208202830111600160201b8211171561244457600080fd5b82525081516020918201928201910280838360005b83811015612471578181015183820152602001612459565b505050509050016040525050509150868260018451038151811061249157fe5b602002602001015110156124d65760405162461bcd60e51b8152600401808060200182810382526026815260200180614d316026913960400191505060405180910390fd5b7f00000000000000000000000000000000000000000000000000000000000000006001600160a01b031663d0e30db08360008151811061251257fe5b60200260200101516040518263ffffffff1660e01b81526004016000604051808303818588803b15801561254557600080fd5b505af1158015612559573d6000803e3d6000fd5b50505050507f00000000000000000000000000000000000000000000000000000000000000006001600160a01b031663a9059cbb61259d88886000818110611cfd57fe5b846000815181106125aa57fe5b60200260200101516040518363ffffffff1660e01b815260040180836001600160a01b0316815260200182815260200192505050602060405180830381600087803b1580156125f857600080fd5b505af115801561260c573d6000803e3d6000fd5b505050506040513d602081101561262257600080fd5b505161262a57fe5b61266982878780806020026020016040519081016040528093929190818152602001838360200280828437600092019190915250899250614005915050565b5095945050505050565b60007f00000000000000000000000000000000000000000000000000000000000000006001600160a01b03166385f8c2598585856040518463ffffffff1660e01b815260040180848152602001838152602001828152602001935050505060206040518083038186803b158015610f8957600080fd5b6060814281101561272f576040805162461bcd60e51b81526020600482015260136024820152600080516020614dfe833981519152604482015290519081900360640190fd5b604080516307c0329d60e21b8152600481018a815260248201928352604482018890526001600160a01b037f00000000000000000000000000000000000000000000000000000000000000001692631f00ca74928c928b928b92606401846020850280828437600081840152601f19601f82011690508083019250505094505050505060006040518083038186803b1580156127ca57600080fd5b505afa1580156127de573d6000803e3d6000fd5b505050506040513d6000823e601f3d908101601f19168201604052602081101561280757600080fd5b8101908080516040519392919084600160201b82111561282657600080fd5b90830190602082018581111561283b57600080fd5b82518660208202830111600160201b8211171561285757600080fd5b82525081516020918201928201910280838360005b8381101561288457818101518382015260200161286c565b50505050905001604052505050915086826000815181106128a157fe5b602002602001015111156118215760405162461bcd60e51b8152600401808060200182810382526022815260200180614db96022913960400191505060405180910390fd5b6000546001600160a01b031690565b60007f00000000000000000000000000000000000000000000000000000000000000006001600160a01b03166396ed28f984846040518363ffffffff1660e01b815260040180836001600160a01b03168152602001826001600160a01b031681526020019250505060206040518083038186803b15801561297557600080fd5b505afa158015612989573d6000803e3d6000fd5b505050506040513d602081101561299f57600080fd5b50519392505050565b60007f00000000000000000000000000000000000000000000000000000000000000006001600160a01b031663ad615dec8585856040518463ffffffff1660e01b815260040180848152602001838152602001828152602001935050505060206040518083038186803b158015610f8957600080fd5b60008142811015612a64576040805162461bcd60e51b81526020600482015260136024820152600080516020614dfe833981519152604482015290519081900360640190fd5b612a93887f00000000000000000000000000000000000000000000000000000000000000008989893089612ef4565b905080925050612b1c88858a6001600160a01b03166370a08231306040518263ffffffff1660e01b815260040180826001600160a01b0316815260200191505060206040518083038186803b158015612aeb57600080fd5b505afa158015612aff573d6000803e3d6000fd5b505050506040513d6020811015612b1557600080fd5b5051613c46565b7f00000000000000000000000000000000000000000000000000000000000000006001600160a01b0316632e1a7d4d836040518263ffffffff1660e01b815260040180828152602001915050600060405180830381600087803b158015612b8257600080fd5b505af1158015612b96573d6000803e3d6000fd5b505050506113c28483613db0565b8042811015612be8576040805162461bcd60e51b81526020600482015260136024820152600080516020614dfe833981519152604482015290519081900360640190fd5b7f00000000000000000000000000000000000000000000000000000000000000006001600160a01b031685856000818110612c1f57fe5b905060200201356001600160a01b03166001600160a01b031614612c78576040805162461bcd60e51b81526020600482015260186024820152600080516020614d78833981519152604482015290519081900360640190fd5b60003490507f00000000000000000000000000000000000000000000000000000000000000006001600160a01b031663d0e30db0826040518263ffffffff1660e01b81526004016000604051808303818588803b158015612cd857600080fd5b505af1158015612cec573d6000803e3d6000fd5b50505050507f00000000000000000000000000000000000000000000000000000000000000006001600160a01b031663a9059cbb612d3088886000818110611cfd57fe5b836040518363ffffffff1660e01b815260040180836001600160a01b0316815260200182815260200192505050602060405180830381600087803b158015612d7757600080fd5b505af1158015612d8b573d6000803e3d6000fd5b505050506040513d6020811015612da157600080fd5b5051612da957fe5b600086866000198101818110612dbb57fe5b905060200201356001600160a01b03166001600160a01b03166370a08231866040518263ffffffff1660e01b815260040180826001600160a01b0316815260200191505060206040518083038186803b158015612e1757600080fd5b505afa158015612e2b573d6000803e3d6000fd5b505050506040513d6020811015612e4157600080fd5b50516040805160208981028281018201909352898252929350612e839290918a918a91829185019084908082843760009201919091525089925061434c915050565b87611e9d8289896000198101818110612e9857fe5b905060200201356001600160a01b03166001600160a01b03166370a08231896040518263ffffffff1660e01b815260040180826001600160a01b0316815260200191505060206040518083038186803b158015611e6b57600080fd5b6000808242811015612f3b576040805162461bcd60e51b81526020600482015260136024820152600080516020614dfe833981519152604482015290519081900360640190fd5b6000612f478b8b6128f5565b604080516323b872dd60e01b81523360048201526001600160a01b03831660248201819052604482018d9052915192935090916323b872dd916064808201926020929091908290030181600087803b158015612fa257600080fd5b505af1158015612fb6573d6000803e3d6000fd5b505050506040513d6020811015612fcc57600080fd5b50506040805163226bf2d160e21b81526001600160a01b03888116600483015282516000938493928616926389afcb44926024808301939282900301818787803b15801561301957600080fd5b505af115801561302d573d6000803e3d6000fd5b505050506040513d604081101561304357600080fd5b8101908080519060200190929190805190602001909291905050509150915060007f00000000000000000000000000000000000000000000000000000000000000006001600160a01b031663544caa568f8f6040518363ffffffff1660e01b815260040180836001600160a01b03168152602001826001600160a01b0316815260200192505050604080518083038186803b1580156130e157600080fd5b505afa1580156130f5573d6000803e3d6000fd5b505050506040513d604081101561310b57600080fd5b505190506001600160a01b038e81169082161461312957818361312c565b82825b90975095508a8710156131705760405162461bcd60e51b8152600401808060200182810382526021815260200180614d986021913960400191505060405180910390fd5b898610156131af5760405162461bcd60e51b8152600401808060200182810382526021815260200180614d576021913960400191505060405180910390fd5b505050505097509795505050505050565b7f000000000000000000000000000000000000000000000000000000000000000081565b6040805163d06ca61f60e01b815260048101848152602482019283528351604483015283516060937f00000000000000000000000000000000000000000000000000000000000000006001600160a01b03169363d06ca61f9388938893919260640190602080860191028083836000831561145557818101518382015260200161143d565b60008060006132988d7f00000000000000000000000000000000000000000000000000000000000000006128f5565b90506000876132a7578c6132ab565b6000195b6040805163d505accf60e01b815233600482015230602482015260448101839052606481018c905260ff8a16608482015260a4810189905260c4810188905290519192506001600160a01b0384169163d505accf9160e48082019260009290919082900301818387803b15801561332157600080fd5b505af1158015613335573d6000803e3d6000fd5b505050506133478e8e8e8e8e8e610df9565b909f909e509c50505050505050505050505050565b600080600083428110156133a5576040805162461bcd60e51b81526020600482015260136024820152600080516020614dfe833981519152604482015290519081900360640190fd5b6133b38c8c8c8c8c8c614834565b909450925060006133c48d8d6128f5565b90506133d28d338388613ea8565b6133de8c338387613ea8565b806001600160a01b0316636a627842886040518263ffffffff1660e01b815260040180826001600160a01b03168152602001915050602060405180830381600087803b15801561342d57600080fd5b505af1158015613441573d6000803e3d6000fd5b505050506040513d602081101561345757600080fd5b5051949d939c50939a509198505050505050505050565b613476614348565b6000546001600160a01b039081169116146134d8576040805162461bcd60e51b815260206004820181905260248201527f4f776e61626c653a2063616c6c6572206973206e6f7420746865206f776e6572604482015290519081900360640190fd5b6001600160a01b03811661351d5760405162461bcd60e51b8152600401808060200182810382526026815260200180614d0b6026913960400191505060405180910390fd5b600080546040516001600160a01b03808516939216917f8be0079c531659141344cd1fd0a4f28419497f9722a3daafe3b4186f6b6457e091a3600080546001600160a01b0319166001600160a01b0392909216919091179055565b600080600083428110156135c1576040805162461bcd60e51b81526020600482015260136024820152600080516020614dfe833981519152604482015290519081900360640190fd5b6135ef8a7f00000000000000000000000000000000000000000000000000000000000000008b348c8c614834565b909450925060006136208b7f00000000000000000000000000000000000000000000000000000000000000006128f5565b905061362e8b338388613ea8565b7f00000000000000000000000000000000000000000000000000000000000000006001600160a01b031663d0e30db0856040518263ffffffff1660e01b81526004016000604051808303818588803b15801561368957600080fd5b505af115801561369d573d6000803e3d6000fd5b50505050507f00000000000000000000000000000000000000000000000000000000000000006001600160a01b031663a9059cbb82866040518363ffffffff1660e01b815260040180836001600160a01b0316815260200182815260200192505050602060405180830381600087803b15801561371957600080fd5b505af115801561372d573d6000803e3d6000fd5b505050506040513d602081101561374357600080fd5b505161374b57fe5b806001600160a01b0316636a627842886040518263ffffffff1660e01b815260040180826001600160a01b03168152602001915050602060405180830381600087803b15801561379a57600080fd5b505af11580156137ae573d6000803e3d6000fd5b505050506040513d60208110156137c457600080fd5b50519250348410156137dc576137dc33853403613db0565b505096509650969350505050565b60608142811015613830576040805162461bcd60e51b81526020600482015260136024820152600080516020614dfe833981519152604482015290519081900360640190fd5b7f00000000000000000000000000000000000000000000000000000000000000006001600160a01b03168686600081811061386757fe5b905060200201356001600160a01b03166001600160a01b0316146138c0576040805162461bcd60e51b81526020600482015260186024820152600080516020614d78833981519152604482015290519081900360640190fd5b604080516307c0329d60e21b81526004810189815260248201928352604482018890526001600160a01b037f00000000000000000000000000000000000000000000000000000000000000001692631f00ca74928b928b928b92606401846020850280828437600081840152601f19601f82011690508083019250505094505050505060006040518083038186803b15801561395b57600080fd5b505afa15801561396f573d6000803e3d6000fd5b505050506040513d6000823e601f3d908101601f19168201604052602081101561399857600080fd5b8101908080516040519392919084600160201b8211156139b757600080fd5b9083019060208201858111156139cc57600080fd5b82518660208202830111600160201b821117156139e857600080fd5b82525081516020918201928201910280838360005b83811015613a155781810151838201526020016139fd565b5050505090500160405250505091503482600081518110613a3257fe5b60200260200101511115613a775760405162461bcd60e51b8152600401808060200182810382526022815260200180614db96022913960400191505060405180910390fd5b7f00000000000000000000000000000000000000000000000000000000000000006001600160a01b031663d0e30db083600081518110613ab357fe5b60200260200101516040518263ffffffff1660e01b81526004016000604051808303818588803b158015613ae657600080fd5b505af1158015613afa573d6000803e3d6000fd5b50505050507f00000000000000000000000000000000000000000000000000000000000000006001600160a01b031663a9059cbb613b3e88886000818110611cfd57fe5b84600081518110613b4b57fe5b60200260200101516040518363ffffffff1660e01b815260040180836001600160a01b0316815260200182815260200192505050602060405180830381600087803b158015613b9957600080fd5b505af1158015613bad573d6000803e3d6000fd5b505050506040513d6020811015613bc357600080fd5b5051613bcb57fe5b613c0a82878780806020026020016040519081016040528093929190818152602001838360200280828437600092019190915250899250614005915050565b81600081518110613c1757fe5b6020026020010151341115612669576126693383600081518110613c3757fe5b60200260200101513403613db0565b604080516001600160a01b038481166024830152604480830185905283518084039091018152606490920183526020820180516001600160e01b031663a9059cbb60e01b178152925182516000946060949389169392918291908083835b60208310613cc35780518252601f199092019160209182019101613ca4565b6001836020036101000a0380198251168184511680821785525050505050509050019150506000604051808303816000865af19150503d8060008114613d25576040519150601f19603f3d011682016040523d82523d6000602084013e613d2a565b606091505b5091509150818015613d58575080511580613d585750808060200190516020811015613d5557600080fd5b50515b613da9576040805162461bcd60e51b815260206004820152601f60248201527f5472616e7366657248656c7065723a205452414e534645525f4641494c454400604482015290519081900360640190fd5b5050505050565b604080516000808252602082019092526001600160a01b0384169083906040518082805190602001908083835b60208310613dfc5780518252601f199092019160209182019101613ddd565b6001836020036101000a03801982511681845116808217855250505050505090500191505060006040518083038185875af1925050503d8060008114613e5e576040519150601f19603f3d011682016040523d82523d6000602084013e613e63565b606091505b5050905080613ea35760405162461bcd60e51b8152600401808060200182810382526023815260200180614ddb6023913960400191505060405180910390fd5b505050565b604080516001600160a01b0385811660248301528481166044830152606480830185905283518084039091018152608490920183526020820180516001600160e01b03166323b872dd60e01b17815292518251600094606094938a169392918291908083835b60208310613f2d5780518252601f199092019160209182019101613f0e565b6001836020036101000a0380198251168184511680821785525050505050509050019150506000604051808303816000865af19150503d8060008114613f8f576040519150601f19603f3d011682016040523d82523d6000602084013e613f94565b606091505b5091509150818015613fc2575080511580613fc25750808060200190516020811015613fbf57600080fd5b50515b613ffd5760405162461bcd60e51b8152600401808060200182810382526024815260200180614e1e6024913960400191505060405180910390fd5b505050505050565b60005b60018351038110156143425760008084838151811061402357fe5b602002602001015185846001018151811061403a57fe5b60200260200101519150915060007f00000000000000000000000000000000000000000000000000000000000000006001600160a01b031663544caa5684846040518363ffffffff1660e01b815260040180836001600160a01b03168152602001826001600160a01b0316815260200192505050604080518083038186803b1580156140c557600080fd5b505afa1580156140d9573d6000803e3d6000fd5b505050506040513d60408110156140ef57600080fd5b5051875190915060009088906001870190811061410857fe5b60209081029190910101516001549091506001600160a01b0316156141b8576001546040805163152cf14360e31b81523360048201526001600160a01b0387811660248301528681166044830152606482018590529151919092169163a9678a189160848083019260209291908290030181600087803b15801561418b57600080fd5b505af115801561419f573d6000803e3d6000fd5b505050506040513d60208110156141b557600080fd5b50505b600080836001600160a01b0316866001600160a01b0316146141dc578260006141e0565b6000835b91509150600060028a510388106141f75788614217565b614217868b8a6002018151811061420a57fe5b60200260200101516128f5565b905061422387876128f5565b6001600160a01b031663022c0d9f84848460006040519080825280601f01601f191660200182016040528015614260576020820181803683370190505b506040518563ffffffff1660e01b815260040180858152602001848152602001836001600160a01b0316815260200180602001828103825283818151815260200191508051906020019080838360005b838110156142c85781810151838201526020016142b0565b50505050905090810190601f1680156142f55780820380516001836020036101000a031916815260200191505b5095505050505050600060405180830381600087803b15801561431757600080fd5b505af115801561432b573d6000803e3d6000fd5b505060019099019850614008975050505050505050565b50505050565b3390565b60005b6001835103811015613ea35760008084838151811061436a57fe5b602002602001015185846001018151811061438157fe5b60200260200101519150915060007f00000000000000000000000000000000000000000000000000000000000000006001600160a01b031663544caa5684846040518363ffffffff1660e01b815260040180836001600160a01b03168152602001826001600160a01b0316815260200192505050604080518083038186803b15801561440c57600080fd5b505afa158015614420573d6000803e3d6000fd5b505050506040513d604081101561443657600080fd5b50519050600061444684846128f5565b9050600080600080846001600160a01b0316630902f1ac6040518163ffffffff1660e01b815260040160606040518083038186803b15801561448757600080fd5b505afa15801561449b573d6000803e3d6000fd5b505050506040513d60608110156144b157600080fd5b5080516020909101516dffffffffffffffffffffffffffff91821693501690506000806001600160a01b038a8116908916146144ee5782846144f1565b83835b91509150614546828b6001600160a01b03166370a082318a6040518263ffffffff1660e01b815260040180826001600160a01b0316815260200191505060206040518083038186803b158015611e6b57600080fd5b95507f00000000000000000000000000000000000000000000000000000000000000006001600160a01b031663054d50d48784846040518463ffffffff1660e01b815260040180848152602001838152602001828152602001935050505060206040518083038186803b1580156145bc57600080fd5b505afa1580156145d0573d6000803e3d6000fd5b505050506040513d60208110156145e657600080fd5b50516001549095506001600160a01b031615935061469392505050576001546040805163152cf14360e31b81523360048201526001600160a01b0389811660248301528881166044830152606482018590529151919092169163a9678a189160848083019260209291908290030181600087803b15801561466657600080fd5b505af115801561467a573d6000803e3d6000fd5b505050506040513d602081101561469057600080fd5b50505b600080856001600160a01b0316886001600160a01b0316146146b7578260006146bb565b6000835b91509150600060028c51038a106146d2578a6146e5565b6146e5888d8c6002018151811061420a57fe5b604080516000808252602082019283905263022c0d9f60e01b835260248201878152604483018790526001600160a01b038086166064850152608060848501908152845160a48601819052969750908c169563022c0d9f958a958a958a9591949193919260c486019290918190849084905b8381101561476f578181015183820152602001614757565b50505050905090810190601f16801561479c5780820380516001836020036101000a031916815260200191505b5095505050505050600060405180830381600087803b1580156147be57600080fd5b505af11580156147d2573d6000803e3d6000fd5b50506001909b019a5061434f9950505050505050505050565b600061482d83836040518060400160405280601e81526020017f536166654d6174683a207375627472616374696f6e206f766572666c6f770000815250614c73565b9392505050565b60008060006001600160a01b03167f00000000000000000000000000000000000000000000000000000000000000006001600160a01b031663e6a439058a8a6040518363ffffffff1660e01b815260040180836001600160a01b03168152602001826001600160a01b031681526020019250505060206040518083038186803b1580156148c057600080fd5b505afa1580156148d4573d6000803e3d6000fd5b505050506040513d60208110156148ea57600080fd5b50516001600160a01b031614156149a8577f00000000000000000000000000000000000000000000000000000000000000006001600160a01b031663c9c6539689896040518363ffffffff1660e01b815260040180836001600160a01b03168152602001826001600160a01b0316815260200192505050602060405180830381600087803b15801561497b57600080fd5b505af115801561498f573d6000803e3d6000fd5b505050506040513d60208110156149a557600080fd5b50505b6000807f00000000000000000000000000000000000000000000000000000000000000006001600160a01b031663d52bb6f48b8b6040518363ffffffff1660e01b815260040180836001600160a01b03168152602001826001600160a01b0316815260200192505050604080518083038186803b158015614a2857600080fd5b505afa158015614a3c573d6000803e3d6000fd5b505050506040513d6040811015614a5257600080fd5b508051602090910151909250905081158015614a6c575080155b15614a7c57879350869250614c66565b60007f00000000000000000000000000000000000000000000000000000000000000006001600160a01b031663ad615dec8a85856040518463ffffffff1660e01b815260040180848152602001838152602001828152602001935050505060206040518083038186803b158015614af257600080fd5b505afa158015614b06573d6000803e3d6000fd5b505050506040513d6020811015614b1c57600080fd5b50519050878111614b715785811015614b665760405162461bcd60e51b8152600401808060200182810382526021815260200180614d576021913960400191505060405180910390fd5b889450925082614c64565b60007f00000000000000000000000000000000000000000000000000000000000000006001600160a01b031663ad615dec8a85876040518463ffffffff1660e01b815260040180848152602001838152602001828152602001935050505060206040518083038186803b158015614be757600080fd5b505afa158015614bfb573d6000803e3d6000fd5b505050506040513d6020811015614c1157600080fd5b5051905089811115614c1f57fe5b87811015614c5e5760405162461bcd60e51b8152600401808060200182810382526021815260200180614d986021913960400191505060405180910390fd5b94508793505b505b5050965096945050505050565b60008184841115614d025760405162461bcd60e51b81526004018080602001828103825283818151815260200191508051906020019080838360005b83811015614cc7578181015183820152602001614caf565b50505050905090810190601f168015614cf45780820380516001836020036101000a031916815260200191505b509250505060405180910390fd5b50505090039056fe4f776e61626c653a206e6577206f776e657220697320746865207a65726f20616464726573734d646578526f757465723a20494e53554646494349454e545f4f55545055545f414d4f554e544d646578526f757465723a20494e53554646494349454e545f425f414d4f554e544d646578526f757465723a20494e56414c49445f5041544800000000000000004d646578526f757465723a20494e53554646494349454e545f415f414d4f554e544d646578526f757465723a204558434553534956455f494e5055545f414d4f554e545472616e7366657248656c7065723a204554485f5452414e534645525f4641494c45444d646578526f757465723a2045585049524544000000000000000000000000005472616e7366657248656c7065723a205452414e534645525f46524f4d5f4641494c4544a2646970667358221220c7847b2f2d53829f5c3c5ee7676e59f6ca56feb4e925d58152b46f3047f61aac64736f6c634300060c0033",
  "immutableReferences": {
    "5330": [
      {
        "length": 32,
        "start": 3863
      },
      {
        "length": 32,
        "start": 4291
      },
      {
        "length": 32,
        "start": 5119
      },
      {
        "length": 32,
        "start": 5780
      },
      {
        "length": 32,
        "start": 6518
      },
      {
        "length": 32,
        "start": 9033
      },
      {
        "length": 32,
        "start": 9847
      },
      {
        "length": 32,
        "start": 10076
      },
      {
        "length": 32,
        "start": 10489
      },
      {
        "length": 32,
        "start": 10668
      },
      {
        "length": 32,
        "start": 12390
      },
      {
        "length": 32,
        "start": 12738
      },
      {
        "length": 32,
        "start": 12814
      },
      {
        "length": 32,
        "start": 14573
      },
      {
        "length": 32,
        "start": 16458
      },
      {
        "length": 32,
        "start": 17297
      },
      {
        "length": 32,
        "start": 17738
      },
      {
        "length": 32,
        "start": 18500
      },
      {
        "length": 32,
        "start": 18685
      },
      {
        "length": 32,
        "start": 18861
      },
      {
        "length": 32,
        "start": 19072
      },
      {
        "length": 32,
        "start": 19317
      }
    ],
    "5333": [
      {
        "length": 32,
        "start": 481
      },
      {
        "length": 32,
        "start": 3654
      },
      {
        "length": 32,
        "start": 3713
      },
      {
        "length": 32,
        "start": 4109
      },
      {
        "length": 32,
        "start": 4878
      },
      {
        "length": 32,
        "start": 6336
      },
      {
        "length": 32,
        "start": 7076
      },
      {
        "length": 32,
        "start": 7910
      },
      {
        "length": 32,
        "start": 8202
      },
      {
        "length": 32,
        "start": 8421
      },
      {
        "length": 32,
        "start": 8639
      },
      {
        "length": 32,
        "start": 8845
      },
      {
        "length": 32,
        "start": 9432
      },
      {
        "length": 32,
        "start": 9568
      },
      {
        "length": 32,
        "start": 10858
      },
      {
        "length": 32,
        "start": 11038
      },
      {
        "length": 32,
        "start": 11242
      },
      {
        "length": 32,
        "start": 11391
      },
      {
        "length": 32,
        "start": 11507
      },
      {
        "length": 32,
        "start": 12916
      },
      {
        "length": 32,
        "start": 13767
      },
      {
        "length": 32,
        "start": 13820
      },
      {
        "length": 32,
        "start": 13872
      },
      {
        "length": 32,
        "start": 13988
      },
      {
        "length": 32,
        "start": 14386
      },
      {
        "length": 32,
        "start": 14969
      },
      {
        "length": 32,
        "start": 15105
      }
    ]
  },
  "source": "pragma solidity >=0.6.0 <0.8.0;\n//pragma solidity =0.6.6;\n\nimport \"@openzeppelin/contracts/access/Ownable.sol\";\nimport \"../library/SafeMath.sol\";\nimport \"../interface/IERC20.sol\";\nimport \"../interface/IMdexFactory.sol\";\nimport \"../interface/IMdexPair.sol\";\n\ninterface IMdexRouter {\n    function factory() external pure returns (address);\n\n    function WHT() external pure returns (address);\n\n    function swapMining() external pure returns (address);\n\n    function addLiquidity(\n        address tokenA,\n        address tokenB,\n        uint amountADesired,\n        uint amountBDesired,\n        uint amountAMin,\n        uint amountBMin,\n        address to,\n        uint deadline\n    ) external returns (uint amountA, uint amountB, uint liquidity);\n\n    function addLiquidityETH(\n        address token,\n        uint amountTokenDesired,\n        uint amountTokenMin,\n        uint amountETHMin,\n        address to,\n        uint deadline\n    ) external payable returns (uint amountToken, uint amountETH, uint liquidity);\n\n    function removeLiquidity(\n        address tokenA,\n        address tokenB,\n        uint liquidity,\n        uint amountAMin,\n        uint amountBMin,\n        address to,\n        uint deadline\n    ) external returns (uint amountA, uint amountB);\n\n    function removeLiquidityETH(\n        address token,\n        uint liquidity,\n        uint amountTokenMin,\n        uint amountETHMin,\n        address to,\n        uint deadline\n    ) external returns (uint amountToken, uint amountETH);\n\n    function removeLiquidityWithPermit(\n        address tokenA,\n        address tokenB,\n        uint liquidity,\n        uint amountAMin,\n        uint amountBMin,\n        address to,\n        uint deadline,\n        bool approveMax, uint8 v, bytes32 r, bytes32 s\n    ) external returns (uint amountA, uint amountB);\n\n    function removeLiquidityETHWithPermit(\n        address token,\n        uint liquidity,\n        uint amountTokenMin,\n        uint amountETHMin,\n        address to,\n        uint deadline,\n        bool approveMax, uint8 v, bytes32 r, bytes32 s\n    ) external returns (uint amountToken, uint amountETH);\n\n    function swapExactTokensForTokens(\n        uint amountIn,\n        uint amountOutMin,\n        address[] calldata path,\n        address to,\n        uint deadline\n    ) external returns (uint[] memory amounts);\n\n    function swapTokensForExactTokens(\n        uint amountOut,\n        uint amountInMax,\n        address[] calldata path,\n        address to,\n        uint deadline\n    ) external returns (uint[] memory amounts);\n\n    function swapExactETHForTokens(uint amountOutMin, address[] calldata path, address to, uint deadline)\n    external\n    payable\n    returns (uint[] memory amounts);\n\n    function swapTokensForExactETH(uint amountOut, uint amountInMax, address[] calldata path, address to, uint deadline)\n    external\n    returns (uint[] memory amounts);\n\n    function swapExactTokensForETH(uint amountIn, uint amountOutMin, address[] calldata path, address to, uint deadline)\n    external\n    returns (uint[] memory amounts);\n\n    function swapETHForExactTokens(uint amountOut, address[] calldata path, address to, uint deadline)\n    external\n    payable\n    returns (uint[] memory amounts);\n\n    function quote(uint256 amountA, uint256 reserveA, uint256 reserveB) external view returns (uint256 amountB);\n\n    function getAmountOut(uint256 amountIn, uint256 reserveIn, uint256 reserveOut) external view returns (uint256 amountOut);\n\n    function getAmountIn(uint256 amountOut, uint256 reserveIn, uint256 reserveOut) external view returns (uint256 amountIn);\n\n    function getAmountsOut(uint256 amountIn, address[] calldata path) external view returns (uint256[] memory amounts);\n\n    function getAmountsIn(uint256 amountOut, address[] calldata path) external view returns (uint256[] memory amounts);\n\n    function removeLiquidityETHSupportingFeeOnTransferTokens(\n        address token,\n        uint liquidity,\n        uint amountTokenMin,\n        uint amountETHMin,\n        address to,\n        uint deadline\n    ) external returns (uint amountETH);\n\n    function removeLiquidityETHWithPermitSupportingFeeOnTransferTokens(\n        address token,\n        uint liquidity,\n        uint amountTokenMin,\n        uint amountETHMin,\n        address to,\n        uint deadline,\n        bool approveMax, uint8 v, bytes32 r, bytes32 s\n    ) external returns (uint amountETH);\n\n    function swapExactTokensForTokensSupportingFeeOnTransferTokens(\n        uint amountIn,\n        uint amountOutMin,\n        address[] calldata path,\n        address to,\n        uint deadline\n    ) external;\n\n    function swapExactETHForTokensSupportingFeeOnTransferTokens(\n        uint amountOutMin,\n        address[] calldata path,\n        address to,\n        uint deadline\n    ) external payable;\n\n    function swapExactTokensForETHSupportingFeeOnTransferTokens(\n        uint amountIn,\n        uint amountOutMin,\n        address[] calldata path,\n        address to,\n        uint deadline\n    ) external;\n}\n\ninterface ISwapMining {\n    function swap(address account, address input, address output, uint256 amount) external returns (bool);\n}\n\ninterface IWHT {\n    function deposit() external payable;\n\n    function transfer(address to, uint value) external returns (bool);\n\n    function withdraw(uint) external;\n}\n\ncontract MdexRouter is IMdexRouter, Ownable {\n    using SafeMath for uint256;\n\n    address public immutable override factory;\n    address public immutable override WHT;\n    address public override swapMining;\n\n    modifier ensure(uint deadline) {\n        require(deadline >= block.timestamp, 'MdexRouter: EXPIRED');\n        _;\n    }\n\n    constructor(address _factory, address _WHT) public {\n        factory = _factory;\n        WHT = _WHT;\n    }\n\n    receive() external payable {\n        assert(msg.sender == WHT);\n        // only accept HT via fallback from the WHT contract\n    }\n\n    function pairFor(address tokenA, address tokenB) public view returns (address pair){\n        pair = IMdexFactory(factory).pairFor(tokenA, tokenB);\n    }\n\n    function setSwapMining(address _swapMininng) public onlyOwner {\n        swapMining = _swapMininng;\n    }\n\n    // **** ADD LIQUIDITY ****\n    function _addLiquidity(\n        address tokenA,\n        address tokenB,\n        uint amountADesired,\n        uint amountBDesired,\n        uint amountAMin,\n        uint amountBMin\n    ) internal virtual returns (uint amountA, uint amountB) {\n        // create the pair if it doesn't exist yet\n        if (IMdexFactory(factory).getPair(tokenA, tokenB) == address(0)) {\n            IMdexFactory(factory).createPair(tokenA, tokenB);\n        }\n        (uint reserveA, uint reserveB) = IMdexFactory(factory).getReserves(tokenA, tokenB);\n        if (reserveA == 0 && reserveB == 0) {\n            (amountA, amountB) = (amountADesired, amountBDesired);\n        } else {\n            uint amountBOptimal = IMdexFactory(factory).quote(amountADesired, reserveA, reserveB);\n            if (amountBOptimal <= amountBDesired) {\n                require(amountBOptimal >= amountBMin, 'MdexRouter: INSUFFICIENT_B_AMOUNT');\n                (amountA, amountB) = (amountADesired, amountBOptimal);\n            } else {\n                uint amountAOptimal = IMdexFactory(factory).quote(amountBDesired, reserveB, reserveA);\n                assert(amountAOptimal <= amountADesired);\n                require(amountAOptimal >= amountAMin, 'MdexRouter: INSUFFICIENT_A_AMOUNT');\n                (amountA, amountB) = (amountAOptimal, amountBDesired);\n            }\n        }\n    }\n\n    function addLiquidity(\n        address tokenA,\n        address tokenB,\n        uint amountADesired,\n        uint amountBDesired,\n        uint amountAMin,\n        uint amountBMin,\n        address to,\n        uint deadline\n    ) external virtual override ensure(deadline) returns (uint amountA, uint amountB, uint liquidity) {\n        (amountA, amountB) = _addLiquidity(tokenA, tokenB, amountADesired, amountBDesired, amountAMin, amountBMin);\n        address pair = pairFor(tokenA, tokenB);\n        TransferHelper.safeTransferFrom(tokenA, msg.sender, pair, amountA);\n        TransferHelper.safeTransferFrom(tokenB, msg.sender, pair, amountB);\n        liquidity = IMdexPair(pair).mint(to);\n    }\n\n    function addLiquidityETH(\n        address token,\n        uint amountTokenDesired,\n        uint amountTokenMin,\n        uint amountETHMin,\n        address to,\n        uint deadline\n    ) external virtual override payable ensure(deadline) returns (uint amountToken, uint amountETH, uint liquidity) {\n        (amountToken, amountETH) = _addLiquidity(\n            token,\n            WHT,\n            amountTokenDesired,\n            msg.value,\n            amountTokenMin,\n            amountETHMin\n        );\n        address pair = pairFor(token, WHT);\n        TransferHelper.safeTransferFrom(token, msg.sender, pair, amountToken);\n        IWHT(WHT).deposit{value : amountETH}();\n        assert(IWHT(WHT).transfer(pair, amountETH));\n        liquidity = IMdexPair(pair).mint(to);\n        // refund dust eth, if any\n        if (msg.value > amountETH) TransferHelper.safeTransferETH(msg.sender, msg.value - amountETH);\n    }\n\n    // **** REMOVE LIQUIDITY ****\n    function removeLiquidity(\n        address tokenA,\n        address tokenB,\n        uint liquidity,\n        uint amountAMin,\n        uint amountBMin,\n        address to,\n        uint deadline\n    ) public virtual override ensure(deadline) returns (uint amountA, uint amountB) {\n        address pair = pairFor(tokenA, tokenB);\n        IMdexPair(pair).transferFrom(msg.sender, pair, liquidity);\n        // send liquidity to pair\n        (uint amount0, uint amount1) = IMdexPair(pair).burn(to);\n        (address token0,) = IMdexFactory(factory).sortTokens(tokenA, tokenB);\n        (amountA, amountB) = tokenA == token0 ? (amount0, amount1) : (amount1, amount0);\n        require(amountA >= amountAMin, 'MdexRouter: INSUFFICIENT_A_AMOUNT');\n        require(amountB >= amountBMin, 'MdexRouter: INSUFFICIENT_B_AMOUNT');\n    }\n\n    function removeLiquidityETH(\n        address token,\n        uint liquidity,\n        uint amountTokenMin,\n        uint amountETHMin,\n        address to,\n        uint deadline\n    ) public virtual override ensure(deadline) returns (uint amountToken, uint amountETH) {\n        (amountToken, amountETH) = removeLiquidity(\n            token,\n            WHT,\n            liquidity,\n            amountTokenMin,\n            amountETHMin,\n            address(this),\n            deadline\n        );\n        TransferHelper.safeTransfer(token, to, amountToken);\n        IWHT(WHT).withdraw(amountETH);\n        TransferHelper.safeTransferETH(to, amountETH);\n    }\n\n    function removeLiquidityWithPermit(\n        address tokenA,\n        address tokenB,\n        uint liquidity,\n        uint amountAMin,\n        uint amountBMin,\n        address to,\n        uint deadline,\n        bool approveMax, uint8 v, bytes32 r, bytes32 s\n    ) external virtual override returns (uint amountA, uint amountB) {\n        address pair = pairFor(tokenA, tokenB);\n        uint value = approveMax ? uint(- 1) : liquidity;\n        IMdexPair(pair).permit(msg.sender, address(this), value, deadline, v, r, s);\n        (amountA, amountB) = removeLiquidity(tokenA, tokenB, liquidity, amountAMin, amountBMin, to, deadline);\n    }\n\n    function removeLiquidityETHWithPermit(\n        address token,\n        uint liquidity,\n        uint amountTokenMin,\n        uint amountETHMin,\n        address to,\n        uint deadline,\n        bool approveMax, uint8 v, bytes32 r, bytes32 s\n    ) external virtual override returns (uint amountToken, uint amountETH) {\n        address pair = pairFor(token, WHT);\n        uint value = approveMax ? uint(- 1) : liquidity;\n        IMdexPair(pair).permit(msg.sender, address(this), value, deadline, v, r, s);\n        (amountToken, amountETH) = removeLiquidityETH(token, liquidity, amountTokenMin, amountETHMin, to, deadline);\n    }\n\n    // **** REMOVE LIQUIDITY (supporting fee-on-transfer tokens) ****\n    function removeLiquidityETHSupportingFeeOnTransferTokens(\n        address token,\n        uint liquidity,\n        uint amountTokenMin,\n        uint amountETHMin,\n        address to,\n        uint deadline\n    ) public virtual override ensure(deadline) returns (uint amountETH) {\n        (, amountETH) = removeLiquidity(\n            token,\n            WHT,\n            liquidity,\n            amountTokenMin,\n            amountETHMin,\n            address(this),\n            deadline\n        );\n        TransferHelper.safeTransfer(token, to, IERC20(token).balanceOf(address(this)));\n        IWHT(WHT).withdraw(amountETH);\n        TransferHelper.safeTransferETH(to, amountETH);\n    }\n\n    function removeLiquidityETHWithPermitSupportingFeeOnTransferTokens(\n        address token,\n        uint liquidity,\n        uint amountTokenMin,\n        uint amountETHMin,\n        address to,\n        uint deadline,\n        bool approveMax, uint8 v, bytes32 r, bytes32 s\n    ) external virtual override returns (uint amountETH) {\n        address pair = pairFor(token, WHT);\n        uint value = approveMax ? uint(- 1) : liquidity;\n        IMdexPair(pair).permit(msg.sender, address(this), value, deadline, v, r, s);\n        amountETH = removeLiquidityETHSupportingFeeOnTransferTokens(\n            token, liquidity, amountTokenMin, amountETHMin, to, deadline\n        );\n    }\n\n    // **** SWAP ****\n    // requires the initial amount to have already been sent to the first pair\n    function _swap(uint[] memory amounts, address[] memory path, address _to) internal virtual {\n        for (uint i; i < path.length - 1; i++) {\n            (address input, address output) = (path[i], path[i + 1]);\n            (address token0,) = IMdexFactory(factory).sortTokens(input, output);\n            uint amountOut = amounts[i + 1];\n            if (swapMining != address(0)) {\n                ISwapMining(swapMining).swap(msg.sender, input, output, amountOut);\n            }\n            (uint amount0Out, uint amount1Out) = input == token0 ? (uint(0), amountOut) : (amountOut, uint(0));\n            address to = i < path.length - 2 ? pairFor(output, path[i + 2]) : _to;\n            IMdexPair(pairFor(input, output)).swap(\n                amount0Out, amount1Out, to, new bytes(0)\n            );\n        }\n    }\n\n    function swapExactTokensForTokens(\n        uint amountIn,\n        uint amountOutMin,\n        address[] calldata path,\n        address to,\n        uint deadline\n    ) external virtual override ensure(deadline) returns (uint[] memory amounts) {\n        amounts = IMdexFactory(factory).getAmountsOut(amountIn, path);\n        require(amounts[amounts.length - 1] >= amountOutMin, 'MdexRouter: INSUFFICIENT_OUTPUT_AMOUNT');\n        TransferHelper.safeTransferFrom(\n            path[0], msg.sender, pairFor(path[0], path[1]), amounts[0]\n        );\n        _swap(amounts, path, to);\n    }\n\n    function swapTokensForExactTokens(\n        uint amountOut,\n        uint amountInMax,\n        address[] calldata path,\n        address to,\n        uint deadline\n    ) external virtual override ensure(deadline) returns (uint[] memory amounts) {\n        amounts = IMdexFactory(factory).getAmountsIn(amountOut, path);\n        require(amounts[0] <= amountInMax, 'MdexRouter: EXCESSIVE_INPUT_AMOUNT');\n        TransferHelper.safeTransferFrom(\n            path[0], msg.sender, pairFor(path[0], path[1]), amounts[0]\n        );\n        _swap(amounts, path, to);\n    }\n\n    function swapExactETHForTokens(uint amountOutMin, address[] calldata path, address to, uint deadline)\n    external\n    virtual\n    override\n    payable\n    ensure(deadline)\n    returns (uint[] memory amounts)\n    {\n        require(path[0] == WHT, 'MdexRouter: INVALID_PATH');\n        amounts = IMdexFactory(factory).getAmountsOut(msg.value, path);\n        require(amounts[amounts.length - 1] >= amountOutMin, 'MdexRouter: INSUFFICIENT_OUTPUT_AMOUNT');\n        IWHT(WHT).deposit{value : amounts[0]}();\n        assert(IWHT(WHT).transfer(pairFor(path[0], path[1]), amounts[0]));\n        _swap(amounts, path, to);\n    }\n\n    function swapTokensForExactETH(uint amountOut, uint amountInMax, address[] calldata path, address to, uint deadline)\n    external\n    virtual\n    override\n    ensure(deadline)\n    returns (uint[] memory amounts)\n    {\n        require(path[path.length - 1] == WHT, 'MdexRouter: INVALID_PATH');\n        amounts = IMdexFactory(factory).getAmountsIn(amountOut, path);\n        require(amounts[0] <= amountInMax, 'MdexRouter: EXCESSIVE_INPUT_AMOUNT');\n        TransferHelper.safeTransferFrom(\n            path[0], msg.sender, pairFor(path[0], path[1]), amounts[0]\n        );\n        _swap(amounts, path, address(this));\n        IWHT(WHT).withdraw(amounts[amounts.length - 1]);\n        TransferHelper.safeTransferETH(to, amounts[amounts.length - 1]);\n    }\n\n    function swapExactTokensForETH(uint amountIn, uint amountOutMin, address[] calldata path, address to, uint deadline)\n    external\n    virtual\n    override\n    ensure(deadline)\n    returns (uint[] memory amounts)\n    {\n        require(path[path.length - 1] == WHT, 'MdexRouter: INVALID_PATH');\n        amounts = IMdexFactory(factory).getAmountsOut(amountIn, path);\n        require(amounts[amounts.length - 1] >= amountOutMin, 'MdexRouter: INSUFFICIENT_OUTPUT_AMOUNT');\n        TransferHelper.safeTransferFrom(\n            path[0], msg.sender, pairFor(path[0], path[1]), amounts[0]\n        );\n        _swap(amounts, path, address(this));\n        IWHT(WHT).withdraw(amounts[amounts.length - 1]);\n        TransferHelper.safeTransferETH(to, amounts[amounts.length - 1]);\n    }\n\n    function swapETHForExactTokens(uint amountOut, address[] calldata path, address to, uint deadline)\n    external\n    virtual\n    override\n    payable\n    ensure(deadline)\n    returns (uint[] memory amounts)\n    {\n        require(path[0] == WHT, 'MdexRouter: INVALID_PATH');\n        amounts = IMdexFactory(factory).getAmountsIn(amountOut, path);\n        require(amounts[0] <= msg.value, 'MdexRouter: EXCESSIVE_INPUT_AMOUNT');\n        IWHT(WHT).deposit{value : amounts[0]}();\n        assert(IWHT(WHT).transfer(pairFor(path[0], path[1]), amounts[0]));\n        _swap(amounts, path, to);\n        // refund dust eth, if any\n        if (msg.value > amounts[0]) TransferHelper.safeTransferETH(msg.sender, msg.value - amounts[0]);\n    }\n\n    // **** SWAP (supporting fee-on-transfer tokens) ****\n    // requires the initial amount to have already been sent to the first pair\n    function _swapSupportingFeeOnTransferTokens(address[] memory path, address _to) internal virtual {\n        for (uint i; i < path.length - 1; i++) {\n            (address input, address output) = (path[i], path[i + 1]);\n            (address token0,) = IMdexFactory(factory).sortTokens(input, output);\n            IMdexPair pair = IMdexPair(pairFor(input, output));\n            uint amountInput;\n            uint amountOutput;\n            {// scope to avoid stack too deep errors\n                (uint reserve0, uint reserve1,) = pair.getReserves();\n                (uint reserveInput, uint reserveOutput) = input == token0 ? (reserve0, reserve1) : (reserve1, reserve0);\n                amountInput = IERC20(input).balanceOf(address(pair)).sub(reserveInput);\n                amountOutput = IMdexFactory(factory).getAmountOut(amountInput, reserveInput, reserveOutput);\n            }\n            if (swapMining != address(0)) {\n                ISwapMining(swapMining).swap(msg.sender, input, output, amountOutput);\n            }\n            (uint amount0Out, uint amount1Out) = input == token0 ? (uint(0), amountOutput) : (amountOutput, uint(0));\n            address to = i < path.length - 2 ? pairFor(output, path[i + 2]) : _to;\n            pair.swap(amount0Out, amount1Out, to, new bytes(0));\n        }\n    }\n\n    function swapExactTokensForTokensSupportingFeeOnTransferTokens(\n        uint amountIn,\n        uint amountOutMin,\n        address[] calldata path,\n        address to,\n        uint deadline\n    ) external virtual override ensure(deadline) {\n        TransferHelper.safeTransferFrom(\n            path[0], msg.sender, pairFor(path[0], path[1]), amountIn\n        );\n        uint balanceBefore = IERC20(path[path.length - 1]).balanceOf(to);\n        _swapSupportingFeeOnTransferTokens(path, to);\n        require(\n            IERC20(path[path.length - 1]).balanceOf(to).sub(balanceBefore) >= amountOutMin,\n            'MdexRouter: INSUFFICIENT_OUTPUT_AMOUNT'\n        );\n    }\n\n    function swapExactETHForTokensSupportingFeeOnTransferTokens(\n        uint amountOutMin,\n        address[] calldata path,\n        address to,\n        uint deadline\n    )\n    external\n    virtual\n    override\n    payable\n    ensure(deadline)\n    {\n        require(path[0] == WHT, 'MdexRouter: INVALID_PATH');\n        uint amountIn = msg.value;\n        IWHT(WHT).deposit{value : amountIn}();\n        assert(IWHT(WHT).transfer(pairFor(path[0], path[1]), amountIn));\n        uint balanceBefore = IERC20(path[path.length - 1]).balanceOf(to);\n        _swapSupportingFeeOnTransferTokens(path, to);\n        require(\n            IERC20(path[path.length - 1]).balanceOf(to).sub(balanceBefore) >= amountOutMin,\n            'MdexRouter: INSUFFICIENT_OUTPUT_AMOUNT'\n        );\n    }\n\n    function swapExactTokensForETHSupportingFeeOnTransferTokens(\n        uint amountIn,\n        uint amountOutMin,\n        address[] calldata path,\n        address to,\n        uint deadline\n    )\n    external\n    virtual\n    override\n    ensure(deadline)\n    {\n        require(path[path.length - 1] == WHT, 'MdexRouter: INVALID_PATH');\n        TransferHelper.safeTransferFrom(\n            path[0], msg.sender, pairFor(path[0], path[1]), amountIn\n        );\n        _swapSupportingFeeOnTransferTokens(path, address(this));\n        uint amountOut = IERC20(WHT).balanceOf(address(this));\n        require(amountOut >= amountOutMin, 'MdexRouter: INSUFFICIENT_OUTPUT_AMOUNT');\n        IWHT(WHT).withdraw(amountOut);\n        TransferHelper.safeTransferETH(to, amountOut);\n    }\n\n    // **** LIBRARY FUNCTIONS ****\n    function quote(uint256 amountA, uint256 reserveA, uint256 reserveB) public view override returns (uint256 amountB) {\n        return IMdexFactory(factory).quote(amountA, reserveA, reserveB);\n    }\n\n    function getAmountOut(uint256 amountIn, uint256 reserveIn, uint256 reserveOut) public view override returns (uint256 amountOut){\n        return IMdexFactory(factory).getAmountOut(amountIn, reserveIn, reserveOut);\n    }\n\n    function getAmountIn(uint256 amountOut, uint256 reserveIn, uint256 reserveOut) public view override returns (uint256 amountIn){\n        return IMdexFactory(factory).getAmountIn(amountOut, reserveIn, reserveOut);\n    }\n\n    function getAmountsOut(uint256 amountIn, address[] memory path) public view override returns (uint256[] memory amounts){\n        return IMdexFactory(factory).getAmountsOut(amountIn, path);\n    }\n\n    function getAmountsIn(uint256 amountOut, address[] memory path) public view override returns (uint256[] memory amounts){\n        return IMdexFactory(factory).getAmountsIn(amountOut, path);\n    }\n\n}\n\n\n// helper methods for interacting with ERC20 tokens and sending ETH that do not consistently return true/false\nlibrary TransferHelper {\n    function safeApprove(address token, address to, uint value) internal {\n        // bytes4(keccak256(bytes('approve(address,uint256)')));\n        (bool success, bytes memory data) = token.call(abi.encodeWithSelector(0x095ea7b3, to, value));\n        require(success && (data.length == 0 || abi.decode(data, (bool))), 'TransferHelper: APPROVE_FAILED');\n    }\n\n    function safeTransfer(address token, address to, uint value) internal {\n        // bytes4(keccak256(bytes('transfer(address,uint256)')));\n        (bool success, bytes memory data) = token.call(abi.encodeWithSelector(0xa9059cbb, to, value));\n        require(success && (data.length == 0 || abi.decode(data, (bool))), 'TransferHelper: TRANSFER_FAILED');\n    }\n\n    function safeTransferFrom(address token, address from, address to, uint value) internal {\n        // bytes4(keccak256(bytes('transferFrom(address,address,uint256)')));\n        (bool success, bytes memory data) = token.call(abi.encodeWithSelector(0x23b872dd, from, to, value));\n        require(success && (data.length == 0 || abi.decode(data, (bool))), 'TransferHelper: TRANSFER_FROM_FAILED');\n    }\n\n    function safeTransferETH(address to, uint value) internal {\n        (bool success,) = to.call{value : value}(new bytes(0));\n        require(success, 'TransferHelper: ETH_TRANSFER_FAILED');\n    }\n}\n",
  "sourcePath": "/Users/fong/work/heco/mdex/contracts/contracts/heco/Router.sol",
  "compiler": {
    "name": "solc",
    "version": "0.6.12+commit.27d51765.Emscripten.clang"
  },
  "schemaVersion": "3.2.0",
  "updatedAt": "2021-02-02T03:00:33.807Z",
  "devdoc": {
    "kind": "dev",
    "methods": {
      "owner()": {
        "details": "Returns the address of the current owner."
      },
      "renounceOwnership()": {
        "details": "Leaves the contract without owner. It will not be possible to call `onlyOwner` functions anymore. Can only be called by the current owner. NOTE: Renouncing ownership will leave the contract without an owner, thereby removing any functionality that is only available to the owner."
      },
      "transferOwnership(address)": {
        "details": "Transfers ownership of the contract to a new account (`newOwner`). Can only be called by the current owner."
      }
    },
    "version": 1
  },
  "userdoc": {
    "kind": "user",
    "methods": {},
    "version": 1
  }
}